{
  "contractName": "AccessControl",
  "abi": [
    {
      "inputs": [],
      "stateMutability": "nonpayable",
      "type": "constructor"
    },
    {
      "anonymous": false,
      "inputs": [
        {
          "indexed": false,
          "internalType": "uint256",
          "name": "requestId",
          "type": "uint256"
        },
        {
          "indexed": false,
          "internalType": "address",
          "name": "from",
          "type": "address"
        },
        {
          "indexed": false,
          "internalType": "address",
          "name": "resource",
          "type": "address"
        },
        {
          "indexed": false,
          "internalType": "string",
          "name": "action",
          "type": "string"
        }
      ],
      "name": "AccessControlEvent",
      "type": "event"
    },
    {
      "anonymous": false,
      "inputs": [
        {
          "indexed": false,
          "internalType": "uint256",
          "name": "requestId",
          "type": "uint256"
        },
        {
          "indexed": false,
          "internalType": "address",
          "name": "resource",
          "type": "address"
        },
        {
          "indexed": false,
          "internalType": "string[]",
          "name": "sa",
          "type": "string[]"
        },
        {
          "indexed": false,
          "internalType": "string[]",
          "name": "oa",
          "type": "string[]"
        },
        {
          "indexed": false,
          "internalType": "string",
          "name": "action",
          "type": "string"
        }
      ],
      "name": "AddPolicyEvent",
      "type": "event"
    },
    {
      "anonymous": false,
      "inputs": [
        {
          "indexed": false,
          "internalType": "uint256",
          "name": "requestId",
          "type": "uint256"
        },
        {
          "indexed": false,
          "internalType": "string",
          "name": "result",
          "type": "string"
        }
      ],
      "name": "CallbackAccessControlEvent",
      "type": "event"
    },
    {
      "anonymous": false,
      "inputs": [
        {
          "indexed": false,
          "internalType": "uint256",
          "name": "requestId",
          "type": "uint256"
        },
        {
          "indexed": false,
          "internalType": "bool",
          "name": "result",
          "type": "bool"
        }
      ],
      "name": "CallbackAddPolicyEvent",
      "type": "event"
    },
    {
      "anonymous": false,
      "inputs": [
        {
          "indexed": false,
          "internalType": "uint256",
          "name": "requestId",
          "type": "uint256"
        },
        {
          "indexed": false,
          "internalType": "bool",
          "name": "result",
          "type": "bool"
        }
      ],
      "name": "CallbackUpdatePolicyEvent",
      "type": "event"
    },
    {
      "anonymous": false,
      "inputs": [
        {
          "indexed": true,
          "internalType": "address",
          "name": "from",
          "type": "address"
        },
        {
          "indexed": false,
          "internalType": "string",
          "name": "result",
          "type": "string"
        }
      ],
      "name": "ReturnAccessResult",
      "type": "event"
    },
    {
      "anonymous": false,
      "inputs": [
        {
          "indexed": false,
          "internalType": "uint256",
          "name": "requestId",
          "type": "uint256"
        },
        {
          "indexed": false,
          "internalType": "address",
          "name": "resource",
          "type": "address"
        },
        {
          "indexed": false,
          "internalType": "string[]",
          "name": "sa",
          "type": "string[]"
        },
        {
          "indexed": false,
          "internalType": "string[]",
          "name": "oa",
          "type": "string[]"
        },
        {
          "indexed": false,
          "internalType": "string",
          "name": "action",
          "type": "string"
        },
        {
          "indexed": false,
          "internalType": "uint256",
          "name": "smartContractStartTime",
          "type": "uint256"
        }
      ],
      "name": "UpdatePolicyEvent",
      "type": "event"
    },
    {
      "inputs": [
        {
          "internalType": "uint256",
          "name": "_requestId",
          "type": "uint256"
        },
        {
          "internalType": "address",
          "name": "_resource",
          "type": "address"
        },
        {
          "internalType": "string[]",
          "name": "_sa",
          "type": "string[]"
        },
        {
          "internalType": "string[]",
          "name": "_oa",
          "type": "string[]"
        },
        {
          "internalType": "string",
          "name": "_action",
          "type": "string"
        }
      ],
      "name": "addPolicy",
      "outputs": [],
      "stateMutability": "nonpayable",
      "type": "function"
    },
    {
      "inputs": [
        {
          "internalType": "uint256",
          "name": "requestId",
          "type": "uint256"
        },
        {
          "internalType": "bool",
          "name": "isOk",
          "type": "bool"
        }
      ],
      "name": "callbackAddPolicy",
      "outputs": [],
      "stateMutability": "nonpayable",
      "type": "function"
    },
    {
      "inputs": [
        {
          "internalType": "uint256",
          "name": "requestId",
          "type": "uint256"
        },
        {
          "internalType": "address",
          "name": "_resource",
          "type": "address"
        },
        {
          "internalType": "string",
          "name": "_action",
          "type": "string"
        }
      ],
      "name": "accessControl",
      "outputs": [],
      "stateMutability": "nonpayable",
      "type": "function"
    },
    {
      "inputs": [
        {
          "internalType": "uint256",
          "name": "_requestId",
          "type": "uint256"
        },
        {
          "internalType": "bool",
          "name": "sa_result",
          "type": "bool"
        },
        {
          "internalType": "bool",
          "name": "oa_result",
          "type": "bool"
        }
      ],
      "name": "callbackAccessControl",
      "outputs": [],
      "stateMutability": "nonpayable",
      "type": "function"
    },
    {
      "inputs": [
        {
          "internalType": "string",
          "name": "a",
          "type": "string"
        },
        {
          "internalType": "string",
          "name": "b",
          "type": "string"
        }
      ],
      "name": "stringCompare",
      "outputs": [
        {
          "internalType": "bool",
          "name": "",
          "type": "bool"
        }
      ],
      "stateMutability": "pure",
      "type": "function"
    },
    {
      "inputs": [
        {
          "internalType": "string",
          "name": "s",
          "type": "string"
        }
      ],
      "name": "stringToUint",
      "outputs": [
        {
          "internalType": "uint256",
          "name": "result",
          "type": "uint256"
        }
      ],
      "stateMutability": "pure",
      "type": "function"
    }
  ],
  "bytecode": "0x608060405234801561001057600080fd5b50336000806101000a81548173ffffffffffffffffffffffffffffffffffffffff021916908373ffffffffffffffffffffffffffffffffffffffff16021790555061171e806100606000396000f3fe608060405234801561001057600080fd5b50600436106100625760003560e01c806317676e4c146100675780631bd95155146100835780633520238e146100b357806360353db9146100cf57806398dd7583146100ff578063ba01b1f01461011b575b600080fd5b610081600480360381019061007c9190610b70565b610137565b005b61009d60048036038101906100989190610bdf565b610179565b6040516100aa9190610c37565b60405180910390f35b6100cd60048036038101906100c89190610c8a565b610219565b005b6100e960048036038101906100e49190610cca565b610256565b6040516100f69190610d51565b60405180910390f35b61011960048036038101906101149190610d6c565b610364565b005b61013560048036038101906101309190610ea5565b6103ec565b005b7f71750feaf3329ab3cf4a12b2a7e0bf7e99b22c543f8cdc6effbd9ea78ba4794a8333848460405161016c949392919061100b565b60405180910390a1505050565b6000808290506000809250600090505b81518110156102125760008282815181106101a7576101a6611057565b5b602001015160f81c60f81b60f81c905060308160ff16101580156101cf575060398160ff1611155b156101fe576030816101e191906110c2565b60ff16600a856101f191906110f6565b6101fb9190611150565b93505b50808061020a906111a6565b915050610189565b5050919050565b7f6a9fdc8a5b25a38e4bf4581a2efd223a26cc9cc0f597bb361b89b767cf1da3ff828260405161024a9291906111ee565b60405180910390a15050565b600080839050600083905080518251146102755760009250505061035e565b600182510361030a578060008151811061029257610291611057565b5b602001015160f81c60f81b7effffffffffffffffffffffffffffffffffffffffffffffffffffffffffffff1916826000815181106102d3576102d2611057565b5b602001015160f81c60f81b7effffffffffffffffffffffffffffffffffffffffffffffffffffffffffffff1916149250505061035e565b8360405160200161031b9190611253565b60405160208183030381529060405280519060200120856040516020016103429190611253565b6040516020818303038152906040528051906020012014925050505b92915050565b81801561036e5750805b156103af577fdd240fcbda09a76aeab377619e463f3515f4820c45a11f70da7ef10560ddf481836040516103a291906112b6565b60405180910390a16103e7565b7fdd240fcbda09a76aeab377619e463f3515f4820c45a11f70da7ef10560ddf481836040516103de9190611330565b60405180910390a15b505050565b60008054906101000a900473ffffffffffffffffffffffffffffffffffffffff1673ffffffffffffffffffffffffffffffffffffffff163373ffffffffffffffffffffffffffffffffffffffff161461047a576040517f08c379a0000000000000000000000000000000000000000000000000000000008152600401610471906113d0565b60405180910390fd5b60006002845161048a919061141f565b036104ca576040517f08c379a00000000000000000000000000000000000000000000000000000000081526004016104c1906114c2565b60405180910390fd5b6000600283516104da919061141f565b0361051a576040517f08c379a0000000000000000000000000000000000000000000000000000000008152600401610511906114c2565b60405180910390fd5b60005b835181101561072a5761058b846002836105379190611150565b8151811061054857610547611057565b5b60200260200101516040518060400160405280600181526020017f3e00000000000000000000000000000000000000000000000000000000000000815250610256565b1580156105fa57506105f8846002836105a49190611150565b815181106105b5576105b4611057565b5b60200260200101516040518060400160405280600181526020017f3c00000000000000000000000000000000000000000000000000000000000000815250610256565b155b80156106685750610666846002836106129190611150565b8151811061062357610622611057565b5b60200260200101516040518060400160405280600181526020017f3d00000000000000000000000000000000000000000000000000000000000000815250610256565b155b80156106d657506106d4846002836106809190611150565b8151811061069157610690611057565b5b60200260200101516040518060400160405280600281526020017f213d000000000000000000000000000000000000000000000000000000000000815250610256565b155b15610716576040517f08c379a000000000000000000000000000000000000000000000000000000000815260040161070d90611554565b60405180910390fd5b6004816107239190611150565b905061051d565b5060005b825181101561093b5761079c836002836107489190611150565b8151811061075957610758611057565b5b60200260200101516040518060400160405280600181526020017f3e00000000000000000000000000000000000000000000000000000000000000815250610256565b15801561080b5750610809836002836107b59190611150565b815181106107c6576107c5611057565b5b60200260200101516040518060400160405280600181526020017f3c00000000000000000000000000000000000000000000000000000000000000815250610256565b155b80156108795750610877836002836108239190611150565b8151811061083457610833611057565b5b60200260200101516040518060400160405280600181526020017f3d00000000000000000000000000000000000000000000000000000000000000815250610256565b155b80156108e757506108e5836002836108919190611150565b815181106108a2576108a1611057565b5b60200260200101516040518060400160405280600281526020017f213d000000000000000000000000000000000000000000000000000000000000815250610256565b155b15610927576040517f08c379a000000000000000000000000000000000000000000000000000000000815260040161091e90611554565b60405180910390fd5b6004816109349190611150565b905061072e565b507f0a442c1aa95a8d0b32b40776345281f1e6ed25c815cfeca1e250a52ebfe421a58585858585604051610973959493929190611680565b60405180910390a15050505050565b6000604051905090565b600080fd5b600080fd5b6000819050919050565b6109a981610996565b81146109b457600080fd5b50565b6000813590506109c6816109a0565b92915050565b600073ffffffffffffffffffffffffffffffffffffffff82169050919050565b60006109f7826109cc565b9050919050565b610a07816109ec565b8114610a1257600080fd5b50565b600081359050610a24816109fe565b92915050565b600080fd5b600080fd5b6000601f19601f8301169050919050565b7f4e487b7100000000000000000000000000000000000000000000000000000000600052604160045260246000fd5b610a7d82610a34565b810181811067ffffffffffffffff82111715610a9c57610a9b610a45565b5b80604052505050565b6000610aaf610982565b9050610abb8282610a74565b919050565b600067ffffffffffffffff821115610adb57610ada610a45565b5b610ae482610a34565b9050602081019050919050565b82818337600083830152505050565b6000610b13610b0e84610ac0565b610aa5565b905082815260208101848484011115610b2f57610b2e610a2f565b5b610b3a848285610af1565b509392505050565b600082601f830112610b5757610b56610a2a565b5b8135610b67848260208601610b00565b91505092915050565b600080600060608486031215610b8957610b8861098c565b5b6000610b97868287016109b7565b9350506020610ba886828701610a15565b925050604084013567ffffffffffffffff811115610bc957610bc8610991565b5b610bd586828701610b42565b9150509250925092565b600060208284031215610bf557610bf461098c565b5b600082013567ffffffffffffffff811115610c1357610c12610991565b5b610c1f84828501610b42565b91505092915050565b610c3181610996565b82525050565b6000602082019050610c4c6000830184610c28565b92915050565b60008115159050919050565b610c6781610c52565b8114610c7257600080fd5b50565b600081359050610c8481610c5e565b92915050565b60008060408385031215610ca157610ca061098c565b5b6000610caf858286016109b7565b9250506020610cc085828601610c75565b9150509250929050565b60008060408385031215610ce157610ce061098c565b5b600083013567ffffffffffffffff811115610cff57610cfe610991565b5b610d0b85828601610b42565b925050602083013567ffffffffffffffff811115610d2c57610d2b610991565b5b610d3885828601610b42565b9150509250929050565b610d4b81610c52565b82525050565b6000602082019050610d666000830184610d42565b92915050565b600080600060608486031215610d8557610d8461098c565b5b6000610d93868287016109b7565b9350506020610da486828701610c75565b9250506040610db586828701610c75565b9150509250925092565b600067ffffffffffffffff821115610dda57610dd9610a45565b5b602082029050602081019050919050565b600080fd5b6000610e03610dfe84610dbf565b610aa5565b90508083825260208201905060208402830185811115610e2657610e25610deb565b5b835b81811015610e6d57803567ffffffffffffffff811115610e4b57610e4a610a2a565b5b808601610e588982610b42565b85526020850194505050602081019050610e28565b5050509392505050565b600082601f830112610e8c57610e8b610a2a565b5b8135610e9c848260208601610df0565b91505092915050565b600080600080600060a08688031215610ec157610ec061098c565b5b6000610ecf888289016109b7565b9550506020610ee088828901610a15565b945050604086013567ffffffffffffffff811115610f0157610f00610991565b5b610f0d88828901610e77565b935050606086013567ffffffffffffffff811115610f2e57610f2d610991565b5b610f3a88828901610e77565b925050608086013567ffffffffffffffff811115610f5b57610f5a610991565b5b610f6788828901610b42565b9150509295509295909350565b610f7d816109ec565b82525050565b600081519050919050565b600082825260208201905092915050565b60005b83811015610fbd578082015181840152602081019050610fa2565b83811115610fcc576000848401525b50505050565b6000610fdd82610f83565b610fe78185610f8e565b9350610ff7818560208601610f9f565b61100081610a34565b840191505092915050565b60006080820190506110206000830187610c28565b61102d6020830186610f74565b61103a6040830185610f74565b818103606083015261104c8184610fd2565b905095945050505050565b7f4e487b7100000000000000000000000000000000000000000000000000000000600052603260045260246000fd5b600060ff82169050919050565b7f4e487b7100000000000000000000000000000000000000000000000000000000600052601160045260246000fd5b60006110cd82611086565b91506110d883611086565b9250828210156110eb576110ea611093565b5b828203905092915050565b600061110182610996565b915061110c83610996565b9250817fffffffffffffffffffffffffffffffffffffffffffffffffffffffffffffffff048311821515161561114557611144611093565b5b828202905092915050565b600061115b82610996565b915061116683610996565b9250827fffffffffffffffffffffffffffffffffffffffffffffffffffffffffffffffff0382111561119b5761119a611093565b5b828201905092915050565b60006111b182610996565b91507fffffffffffffffffffffffffffffffffffffffffffffffffffffffffffffffff82036111e3576111e2611093565b5b600182019050919050565b60006040820190506112036000830185610c28565b6112106020830184610d42565b9392505050565b600081905092915050565b600061122d82610f83565b6112378185611217565b9350611247818560208601610f9f565b80840191505092915050565b600061125f8284611222565b915081905092915050565b7f416c6c6f77000000000000000000000000000000000000000000000000000000600082015250565b60006112a0600583610f8e565b91506112ab8261126a565b602082019050919050565b60006040820190506112cb6000830184610c28565b81810360208301526112dc81611293565b905092915050565b7f44656e7900000000000000000000000000000000000000000000000000000000600082015250565b600061131a600483610f8e565b9150611325826112e4565b602082019050919050565b60006040820190506113456000830184610c28565b81810360208301526113568161130d565b905092915050565b7f616464506f6c696379206572726f723a2043616c6c6572206973206e6f74206f60008201527f776e657221000000000000000000000000000000000000000000000000000000602082015250565b60006113ba602583610f8e565b91506113c58261135e565b604082019050919050565b600060208201905081810360008301526113e9816113ad565b9050919050565b7f4e487b7100000000000000000000000000000000000000000000000000000000600052601260045260246000fd5b600061142a82610996565b915061143583610996565b925082611445576114446113f0565b5b828206905092915050565b7f616464506f6c696379206572726f723a20696e76616c6964206578706572737360008201527f696f6e2100000000000000000000000000000000000000000000000000000000602082015250565b60006114ac602483610f8e565b91506114b782611450565b604082019050919050565b600060208201905081810360008301526114db8161149f565b9050919050565b7f616464506f6c696379206572726f723a206f70657261746f722073686f756c6460008201527f206265203e2c203c206f72203d00000000000000000000000000000000000000602082015250565b600061153e602d83610f8e565b9150611549826114e2565b604082019050919050565b6000602082019050818103600083015261156d81611531565b9050919050565b600081519050919050565b600082825260208201905092915050565b6000819050602082019050919050565b600082825260208201905092915050565b60006115bc82610f83565b6115c681856115a0565b93506115d6818560208601610f9f565b6115df81610a34565b840191505092915050565b60006115f683836115b1565b905092915050565b6000602082019050919050565b600061161682611574565b611620818561157f565b93508360208202850161163285611590565b8060005b8581101561166e578484038952815161164f85826115ea565b945061165a836115fe565b925060208a01995050600181019050611636565b50829750879550505050505092915050565b600060a0820190506116956000830188610c28565b6116a26020830187610f74565b81810360408301526116b4818661160b565b905081810360608301526116c8818561160b565b905081810360808301526116dc8184610fd2565b9050969550505050505056fea2646970667358221220767286669dd01337a2aa47c02d1ad8a7c676e4007690ef4dc79ca9fbf7cc2c8264736f6c634300080f0033",
  "immutableReferences": {},
  "source": "// SPDX-License-Identifier:MIT\r\npragma solidity >=0.4.22 <0.9.0;\r\n\r\ninterface AttributeContract {\r\n    function getAttribute(address _address, string memory _attrName)\r\n        external\r\n        view\r\n        returns (string[] memory _attrValue);\r\n\r\n    function addPolicy(        \r\n        address _resource,       \r\n        string[] memory _attrs,\r\n        string memory _action\r\n    ) external;\r\n\r\n    function accessControl(\r\n        address _from,\r\n        address _resource,\r\n        string memory _action\r\n    ) external view returns (bool);\r\n}\r\n\r\ncontract AccessControl {\r\n\r\n    //variables\r\n    address owner;\r\n\r\n    // constructor\r\n    constructor() {\r\n        owner = msg.sender;\r\n    }\r\n\r\n    //Event\r\n    event ReturnAccessResult(address indexed from, string result);\r\n    event AddPolicyEvent(\r\n         uint requestId,\r\n        address resource,\r\n        string[] sa,\r\n        string[] oa,\r\n        string action       \r\n    );\r\n    event UpdatePolicyEvent(\r\n         uint requestId,\r\n        address resource,\r\n        string[] sa,\r\n        string[] oa,\r\n        string action , \r\n        uint smartContractStartTime\r\n    );\r\n    event CallbackAddPolicyEvent(uint requestId, bool result);\r\n    event CallbackUpdatePolicyEvent(uint requestId, bool result);\r\n    event AccessControlEvent(uint requestId, address from, address resource, string action);\r\n    event CallbackAccessControlEvent(uint requestId , string result);\r\n\r\n     \r\n\r\n    function addPolicy(\r\n        uint _requestId,       //Request order Id\r\n        address _resource,     //Object Address\r\n        string[] memory _sa,   //Subject Attributes\r\n        string[] memory _oa,   //Object Attributes\r\n        string memory _action  //Operation\r\n    )\r\n        public\r\n    {\r\n \r\n        require(msg.sender == owner, \"addPolicy error: Caller is not owner!\"); // If it is incorrect here, it reve \r\n        require(_sa.length % 2 != 0, \"addPolicy error: invalid experssion!\");\r\n        require(_oa.length % 2 != 0, \"addPolicy error: invalid experssion!\");\r\n\r\n        for (uint256 i = 0; i < _sa.length; i += 4) {\r\n            if (\r\n                !stringCompare(_sa[i + 2], \">\") &&\r\n                !stringCompare(_sa[i + 2], \"<\") &&\r\n                !stringCompare(_sa[i + 2], \"=\") &&\r\n                !stringCompare(_sa[i + 2], \"!=\")\r\n            ) {\r\n                revert(\"addPolicy error: operator should be >, < or =\");\r\n            }\r\n        }\r\n\r\n        for (uint256 i = 0; i < _oa.length; i += 4) {\r\n            if (\r\n                !stringCompare(_oa[i + 2], \">\") &&\r\n                !stringCompare(_oa[i + 2], \"<\") &&\r\n                !stringCompare(_oa[i + 2], \"=\") &&\r\n                !stringCompare(_oa[i + 2], \"!=\")\r\n            ) {\r\n                revert(\"addPolicy error: operator should be >, < or =\");\r\n            }\r\n        } \r\n         \r\n        emit AddPolicyEvent( _requestId,_resource, _sa, _oa, _action);\r\n    }\r\n\r\n    function callbackAddPolicy(uint requestId, bool isOk) public {       \r\n        emit CallbackAddPolicyEvent(requestId , isOk);\r\n    }\r\n\r\n  \r\n\r\n\r\n\r\n\r\n\r\n          \r\n    function accessControl(uint requestId, address _resource, string memory _action) public {            \r\n        emit AccessControlEvent(requestId ,  msg.sender, _resource, _action );\r\n    }\r\n\r\n    function callbackAccessControl(uint _requestId, bool sa_result, bool oa_result) public\r\n    {         \r\n        if (sa_result && oa_result)\r\n            emit CallbackAccessControlEvent(_requestId , \"Allow\" );\r\n        else\r\n            emit CallbackAccessControlEvent(_requestId , \"Deny\" );\r\n    }\r\n    \r\n\r\n    function stringCompare(string memory a, string memory b)\r\n        public\r\n        pure\r\n        returns (bool)\r\n    {\r\n        bytes memory _a = bytes(a);\r\n        bytes memory _b = bytes(b);\r\n        if (_a.length != _b.length) {\r\n            return false;\r\n        } else {\r\n            if (_a.length == 1) {\r\n                return _a[0] == _b[0];\r\n            } else {\r\n                return\r\n                    keccak256(abi.encodePacked(a)) ==\r\n                    keccak256(abi.encodePacked(b));\r\n            }\r\n        }\r\n    }\r\n\r\n     function stringToUint(string memory s)\r\n        public\r\n        pure\r\n        returns (uint256 result)\r\n    {\r\n        bytes memory b = bytes(s);\r\n        uint256 i;\r\n        result = 0;\r\n        for (i = 0; i < b.length; i++) {\r\n            uint8 c = uint8(b[i]);\r\n            if (c >= 48 && c <= 57) {\r\n                result = result * 10 + (c - 48);\r\n            }\r\n        }\r\n    }\r\n}\r\n",
  "sourcePath": "C:\\final\\Root\\contracts\\AccessControl.sol",
  "compiler": {
    "name": "solc",
    "version": "0.8.15+commit.e14f2714.Emscripten.clang"
  },
  "schemaVersion": "3.4.8",
  "updatedAt": "2023-01-09T15:33:22.269Z",
  "devdoc": {
    "kind": "dev",
    "methods": {},
    "version": 1
  },
  "userdoc": {
    "kind": "user",
    "methods": {},
    "version": 1
  }
}