{
  "contractName": "APSC",
  "abi": [
    {
      "inputs": [],
      "stateMutability": "nonpayable",
      "type": "constructor"
    },
    {
      "anonymous": false,
      "inputs": [
        {
          "indexed": false,
          "internalType": "uint256",
          "name": "requestId",
          "type": "uint256"
        },
        {
          "indexed": false,
          "internalType": "address",
          "name": "resource",
          "type": "address"
        },
        {
          "indexed": false,
          "internalType": "string[]",
          "name": "sa",
          "type": "string[]"
        },
        {
          "indexed": false,
          "internalType": "string[]",
          "name": "oa",
          "type": "string[]"
        },
        {
          "indexed": false,
          "internalType": "string",
          "name": "action",
          "type": "string"
        }
      ],
      "name": "AddPolicyEvent",
      "type": "event"
    },
    {
      "anonymous": false,
      "inputs": [
        {
          "indexed": false,
          "internalType": "uint256",
          "name": "requestId",
          "type": "uint256"
        },
        {
          "indexed": false,
          "internalType": "bool",
          "name": "result",
          "type": "bool"
        }
      ],
      "name": "CallbackAddPolicyEvent",
      "type": "event"
    },
    {
      "anonymous": false,
      "inputs": [
        {
          "indexed": false,
          "internalType": "uint256",
          "name": "requestId",
          "type": "uint256"
        },
        {
          "indexed": false,
          "internalType": "bool",
          "name": "result",
          "type": "bool"
        }
      ],
      "name": "CallbackDeletePolicyEvent",
      "type": "event"
    },
    {
      "anonymous": false,
      "inputs": [
        {
          "indexed": false,
          "internalType": "uint256",
          "name": "requestId",
          "type": "uint256"
        },
        {
          "indexed": false,
          "internalType": "bool",
          "name": "result",
          "type": "bool"
        }
      ],
      "name": "CallbackUpdatePolicyEvent",
      "type": "event"
    },
    {
      "anonymous": false,
      "inputs": [
        {
          "indexed": false,
          "internalType": "uint256",
          "name": "requestId",
          "type": "uint256"
        },
        {
          "indexed": false,
          "internalType": "address",
          "name": "resource",
          "type": "address"
        },
        {
          "indexed": false,
          "internalType": "string[]",
          "name": "sa",
          "type": "string[]"
        },
        {
          "indexed": false,
          "internalType": "string[]",
          "name": "oa",
          "type": "string[]"
        },
        {
          "indexed": false,
          "internalType": "string",
          "name": "action",
          "type": "string"
        }
      ],
      "name": "DeletePolicyEvent",
      "type": "event"
    },
    {
      "anonymous": false,
      "inputs": [
        {
          "indexed": false,
          "internalType": "uint256",
          "name": "requestId",
          "type": "uint256"
        },
        {
          "indexed": false,
          "internalType": "address",
          "name": "resource",
          "type": "address"
        },
        {
          "indexed": false,
          "internalType": "string[]",
          "name": "sa",
          "type": "string[]"
        },
        {
          "indexed": false,
          "internalType": "string[]",
          "name": "oa",
          "type": "string[]"
        },
        {
          "indexed": false,
          "internalType": "string",
          "name": "action",
          "type": "string"
        }
      ],
      "name": "UpdatePolicyEvent",
      "type": "event"
    },
    {
      "inputs": [
        {
          "internalType": "uint256",
          "name": "_requestId",
          "type": "uint256"
        },
        {
          "internalType": "address",
          "name": "_resource",
          "type": "address"
        },
        {
          "internalType": "string[]",
          "name": "_sa",
          "type": "string[]"
        },
        {
          "internalType": "string[]",
          "name": "_oa",
          "type": "string[]"
        },
        {
          "internalType": "string",
          "name": "_action",
          "type": "string"
        }
      ],
      "name": "addPolicy",
      "outputs": [],
      "stateMutability": "nonpayable",
      "type": "function"
    },
    {
      "inputs": [
        {
          "internalType": "uint256",
          "name": "requestId",
          "type": "uint256"
        },
        {
          "internalType": "bool",
          "name": "isOk",
          "type": "bool"
        }
      ],
      "name": "callbackAddPolicy",
      "outputs": [],
      "stateMutability": "nonpayable",
      "type": "function"
    },
    {
      "inputs": [
        {
          "internalType": "uint256",
          "name": "_requestId",
          "type": "uint256"
        },
        {
          "internalType": "address",
          "name": "_resource",
          "type": "address"
        },
        {
          "internalType": "string[]",
          "name": "_sa",
          "type": "string[]"
        },
        {
          "internalType": "string[]",
          "name": "_oa",
          "type": "string[]"
        },
        {
          "internalType": "string",
          "name": "_action",
          "type": "string"
        }
      ],
      "name": "updatePolicy",
      "outputs": [],
      "stateMutability": "nonpayable",
      "type": "function"
    },
    {
      "inputs": [
        {
          "internalType": "uint256",
          "name": "requestId",
          "type": "uint256"
        },
        {
          "internalType": "bool",
          "name": "isOk",
          "type": "bool"
        }
      ],
      "name": "callbackUpdatePolicy",
      "outputs": [],
      "stateMutability": "nonpayable",
      "type": "function"
    },
    {
      "inputs": [
        {
          "internalType": "uint256",
          "name": "_requestId",
          "type": "uint256"
        },
        {
          "internalType": "address",
          "name": "_resource",
          "type": "address"
        },
        {
          "internalType": "string[]",
          "name": "_sa",
          "type": "string[]"
        },
        {
          "internalType": "string[]",
          "name": "_oa",
          "type": "string[]"
        },
        {
          "internalType": "string",
          "name": "_action",
          "type": "string"
        }
      ],
      "name": "deletePolicy",
      "outputs": [],
      "stateMutability": "nonpayable",
      "type": "function"
    },
    {
      "inputs": [
        {
          "internalType": "uint256",
          "name": "requestId",
          "type": "uint256"
        },
        {
          "internalType": "bool",
          "name": "isOk",
          "type": "bool"
        }
      ],
      "name": "callbackDeletePolicy",
      "outputs": [],
      "stateMutability": "nonpayable",
      "type": "function"
    },
    {
      "inputs": [
        {
          "internalType": "string",
          "name": "a",
          "type": "string"
        },
        {
          "internalType": "string",
          "name": "b",
          "type": "string"
        }
      ],
      "name": "stringCompare",
      "outputs": [
        {
          "internalType": "bool",
          "name": "",
          "type": "bool"
        }
      ],
      "stateMutability": "pure",
      "type": "function",
      "constant": true
    },
    {
      "inputs": [
        {
          "internalType": "string",
          "name": "s",
          "type": "string"
        }
      ],
      "name": "stringToUint",
      "outputs": [
        {
          "internalType": "uint256",
          "name": "result",
          "type": "uint256"
        }
      ],
      "stateMutability": "pure",
      "type": "function",
      "constant": true
    }
  ],
  "bytecode": "0x608060405234801561001057600080fd5b50336000806101000a81548173ffffffffffffffffffffffffffffffffffffffff021916908373ffffffffffffffffffffffffffffffffffffffff160217905550611b94806100606000396000f3fe608060405234801561001057600080fd5b50600436106100885760003560e01c806360353db91161005b57806360353db9146101115780637f84eb0514610141578063ba01b1f01461015d578063bc6a0a781461017957610088565b8063058845231461008d57806305faae19146100a95780631bd95155146100c55780633520238e146100f5575b600080fd5b6100a760048036038101906100a2919061107c565b610195565b005b6100c360048036038101906100be9190611346565b6101d2565b005b6100df60048036038101906100da9190611415565b6102a6565b6040516100ec919061146d565b60405180910390f35b61010f600480360381019061010a919061107c565b610346565b005b61012b60048036038101906101269190611488565b610383565b604051610138919061150f565b60405180910390f35b61015b60048036038101906101569190611346565b610491565b005b61017760048036038101906101729190611346565b610a27565b005b610193600480360381019061018e919061107c565b610fbd565b005b7f9e09cbac629afa0f8720e502c37fa31c60aebc272e97a293239741881730fe3882826040516101c692919061152a565b60405180910390a15050565b60008054906101000a900473ffffffffffffffffffffffffffffffffffffffff1673ffffffffffffffffffffffffffffffffffffffff163373ffffffffffffffffffffffffffffffffffffffff1614610260576040517f08c379a0000000000000000000000000000000000000000000000000000000008152600401610257906115d6565b60405180910390fd5b7f7f77b421a74e7b1894893e264d25f69c0ea71e13d201ce2c89f99d3a1b0cf16a8585858585604051610297959493929190611788565b60405180910390a15050505050565b6000808290506000809250600090505b815181101561033f5760008282815181106102d4576102d36117f0565b5b602001015160f81c60f81b60f81c905060308160ff16101580156102fc575060398160ff1611155b1561032b5760308161030e919061185b565b60ff16600a8561031e919061188f565b61032891906118e9565b93505b5080806103379061193f565b9150506102b6565b5050919050565b7f6a9fdc8a5b25a38e4bf4581a2efd223a26cc9cc0f597bb361b89b767cf1da3ff828260405161037792919061152a565b60405180910390a15050565b600080839050600083905080518251146103a25760009250505061048b565b600182510361043757806000815181106103bf576103be6117f0565b5b602001015160f81c60f81b7effffffffffffffffffffffffffffffffffffffffffffffffffffffffffffff191682600081518110610400576103ff6117f0565b5b602001015160f81c60f81b7effffffffffffffffffffffffffffffffffffffffffffffffffffffffffffff1916149250505061048b565b8360405160200161044891906119c3565b604051602081830303815290604052805190602001208560405160200161046f91906119c3565b6040516020818303038152906040528051906020012014925050505b92915050565b60008054906101000a900473ffffffffffffffffffffffffffffffffffffffff1673ffffffffffffffffffffffffffffffffffffffff163373ffffffffffffffffffffffffffffffffffffffff161461051f576040517f08c379a0000000000000000000000000000000000000000000000000000000008152600401610516906115d6565b60405180910390fd5b60006002845161052f9190611a09565b0361056f576040517f08c379a000000000000000000000000000000000000000000000000000000000815260040161056690611aac565b60405180910390fd5b60006002835161057f9190611a09565b036105bf576040517f08c379a00000000000000000000000000000000000000000000000000000000081526004016105b690611aac565b60405180910390fd5b60005b83518110156107cf57610630846002836105dc91906118e9565b815181106105ed576105ec6117f0565b5b60200260200101516040518060400160405280600181526020017f3e00000000000000000000000000000000000000000000000000000000000000815250610383565b15801561069f575061069d8460028361064991906118e9565b8151811061065a576106596117f0565b5b60200260200101516040518060400160405280600181526020017f3c00000000000000000000000000000000000000000000000000000000000000815250610383565b155b801561070d575061070b846002836106b791906118e9565b815181106106c8576106c76117f0565b5b60200260200101516040518060400160405280600181526020017f3d00000000000000000000000000000000000000000000000000000000000000815250610383565b155b801561077b57506107798460028361072591906118e9565b81518110610736576107356117f0565b5b60200260200101516040518060400160405280600281526020017f213d000000000000000000000000000000000000000000000000000000000000815250610383565b155b156107bb576040517f08c379a00000000000000000000000000000000000000000000000000000000081526004016107b290611b3e565b60405180910390fd5b6004816107c891906118e9565b90506105c2565b5060005b82518110156109e057610841836002836107ed91906118e9565b815181106107fe576107fd6117f0565b5b60200260200101516040518060400160405280600181526020017f3e00000000000000000000000000000000000000000000000000000000000000815250610383565b1580156108b057506108ae8360028361085a91906118e9565b8151811061086b5761086a6117f0565b5b60200260200101516040518060400160405280600181526020017f3c00000000000000000000000000000000000000000000000000000000000000815250610383565b155b801561091e575061091c836002836108c891906118e9565b815181106108d9576108d86117f0565b5b60200260200101516040518060400160405280600181526020017f3d00000000000000000000000000000000000000000000000000000000000000815250610383565b155b801561098c575061098a8360028361093691906118e9565b81518110610947576109466117f0565b5b60200260200101516040518060400160405280600281526020017f213d000000000000000000000000000000000000000000000000000000000000815250610383565b155b156109cc576040517f08c379a00000000000000000000000000000000000000000000000000000000081526004016109c390611b3e565b60405180910390fd5b6004816109d991906118e9565b90506107d3565b507fdfda32c1553daa9b2fd052fab9a53c031cc74522f848ac2071cd9b3790d119cc8585858585604051610a18959493929190611788565b60405180910390a15050505050565b60008054906101000a900473ffffffffffffffffffffffffffffffffffffffff1673ffffffffffffffffffffffffffffffffffffffff163373ffffffffffffffffffffffffffffffffffffffff1614610ab5576040517f08c379a0000000000000000000000000000000000000000000000000000000008152600401610aac906115d6565b60405180910390fd5b600060028451610ac59190611a09565b03610b05576040517f08c379a0000000000000000000000000000000000000000000000000000000008152600401610afc90611aac565b60405180910390fd5b600060028351610b159190611a09565b03610b55576040517f08c379a0000000000000000000000000000000000000000000000000000000008152600401610b4c90611aac565b60405180910390fd5b60005b8351811015610d6557610bc684600283610b7291906118e9565b81518110610b8357610b826117f0565b5b60200260200101516040518060400160405280600181526020017f3e00000000000000000000000000000000000000000000000000000000000000815250610383565b158015610c355750610c3384600283610bdf91906118e9565b81518110610bf057610bef6117f0565b5b60200260200101516040518060400160405280600181526020017f3c00000000000000000000000000000000000000000000000000000000000000815250610383565b155b8015610ca35750610ca184600283610c4d91906118e9565b81518110610c5e57610c5d6117f0565b5b60200260200101516040518060400160405280600181526020017f3d00000000000000000000000000000000000000000000000000000000000000815250610383565b155b8015610d115750610d0f84600283610cbb91906118e9565b81518110610ccc57610ccb6117f0565b5b60200260200101516040518060400160405280600281526020017f213d000000000000000000000000000000000000000000000000000000000000815250610383565b155b15610d51576040517f08c379a0000000000000000000000000000000000000000000000000000000008152600401610d4890611b3e565b60405180910390fd5b600481610d5e91906118e9565b9050610b58565b5060005b8251811015610f7657610dd783600283610d8391906118e9565b81518110610d9457610d936117f0565b5b60200260200101516040518060400160405280600181526020017f3e00000000000000000000000000000000000000000000000000000000000000815250610383565b158015610e465750610e4483600283610df091906118e9565b81518110610e0157610e006117f0565b5b60200260200101516040518060400160405280600181526020017f3c00000000000000000000000000000000000000000000000000000000000000815250610383565b155b8015610eb45750610eb283600283610e5e91906118e9565b81518110610e6f57610e6e6117f0565b5b60200260200101516040518060400160405280600181526020017f3d00000000000000000000000000000000000000000000000000000000000000815250610383565b155b8015610f225750610f2083600283610ecc91906118e9565b81518110610edd57610edc6117f0565b5b60200260200101516040518060400160405280600281526020017f213d000000000000000000000000000000000000000000000000000000000000815250610383565b155b15610f62576040517f08c379a0000000000000000000000000000000000000000000000000000000008152600401610f5990611b3e565b60405180910390fd5b600481610f6f91906118e9565b9050610d69565b507f0a442c1aa95a8d0b32b40776345281f1e6ed25c815cfeca1e250a52ebfe421a58585858585604051610fae959493929190611788565b60405180910390a15050505050565b7f0b6d74c51b933c446370bdb81cb438367e7330c41d46c347ba4029c24e6fd5698282604051610fee92919061152a565b60405180910390a15050565b6000604051905090565b600080fd5b600080fd5b6000819050919050565b6110218161100e565b811461102c57600080fd5b50565b60008135905061103e81611018565b92915050565b60008115159050919050565b61105981611044565b811461106457600080fd5b50565b60008135905061107681611050565b92915050565b6000806040838503121561109357611092611004565b5b60006110a18582860161102f565b92505060206110b285828601611067565b9150509250929050565b600073ffffffffffffffffffffffffffffffffffffffff82169050919050565b60006110e7826110bc565b9050919050565b6110f7816110dc565b811461110257600080fd5b50565b600081359050611114816110ee565b92915050565b600080fd5b6000601f19601f8301169050919050565b7f4e487b7100000000000000000000000000000000000000000000000000000000600052604160045260246000fd5b6111688261111f565b810181811067ffffffffffffffff8211171561118757611186611130565b5b80604052505050565b600061119a610ffa565b90506111a6828261115f565b919050565b600067ffffffffffffffff8211156111c6576111c5611130565b5b602082029050602081019050919050565b600080fd5b600080fd5b600067ffffffffffffffff8211156111fc576111fb611130565b5b6112058261111f565b9050602081019050919050565b82818337600083830152505050565b600061123461122f846111e1565b611190565b9050828152602081018484840111156112505761124f6111dc565b5b61125b848285611212565b509392505050565b600082601f8301126112785761127761111a565b5b8135611288848260208601611221565b91505092915050565b60006112a461129f846111ab565b611190565b905080838252602082019050602084028301858111156112c7576112c66111d7565b5b835b8181101561130e57803567ffffffffffffffff8111156112ec576112eb61111a565b5b8086016112f98982611263565b855260208501945050506020810190506112c9565b5050509392505050565b600082601f83011261132d5761132c61111a565b5b813561133d848260208601611291565b91505092915050565b600080600080600060a0868803121561136257611361611004565b5b60006113708882890161102f565b955050602061138188828901611105565b945050604086013567ffffffffffffffff8111156113a2576113a1611009565b5b6113ae88828901611318565b935050606086013567ffffffffffffffff8111156113cf576113ce611009565b5b6113db88828901611318565b925050608086013567ffffffffffffffff8111156113fc576113fb611009565b5b61140888828901611263565b9150509295509295909350565b60006020828403121561142b5761142a611004565b5b600082013567ffffffffffffffff81111561144957611448611009565b5b61145584828501611263565b91505092915050565b6114678161100e565b82525050565b6000602082019050611482600083018461145e565b92915050565b6000806040838503121561149f5761149e611004565b5b600083013567ffffffffffffffff8111156114bd576114bc611009565b5b6114c985828601611263565b925050602083013567ffffffffffffffff8111156114ea576114e9611009565b5b6114f685828601611263565b9150509250929050565b61150981611044565b82525050565b60006020820190506115246000830184611500565b92915050565b600060408201905061153f600083018561145e565b61154c6020830184611500565b9392505050565b600082825260208201905092915050565b7f616464506f6c696379206572726f723a2043616c6c6572206973206e6f74206f60008201527f776e657221000000000000000000000000000000000000000000000000000000602082015250565b60006115c0602583611553565b91506115cb82611564565b604082019050919050565b600060208201905081810360008301526115ef816115b3565b9050919050565b6115ff816110dc565b82525050565b600081519050919050565b600082825260208201905092915050565b6000819050602082019050919050565b600081519050919050565b600082825260208201905092915050565b60005b8381101561166b578082015181840152602081019050611650565b8381111561167a576000848401525b50505050565b600061168b82611631565b611695818561163c565b93506116a581856020860161164d565b6116ae8161111f565b840191505092915050565b60006116c58383611680565b905092915050565b6000602082019050919050565b60006116e582611605565b6116ef8185611610565b93508360208202850161170185611621565b8060005b8581101561173d578484038952815161171e85826116b9565b9450611729836116cd565b925060208a01995050600181019050611705565b50829750879550505050505092915050565b600061175a82611631565b6117648185611553565b935061177481856020860161164d565b61177d8161111f565b840191505092915050565b600060a08201905061179d600083018861145e565b6117aa60208301876115f6565b81810360408301526117bc81866116da565b905081810360608301526117d081856116da565b905081810360808301526117e4818461174f565b90509695505050505050565b7f4e487b7100000000000000000000000000000000000000000000000000000000600052603260045260246000fd5b600060ff82169050919050565b7f4e487b7100000000000000000000000000000000000000000000000000000000600052601160045260246000fd5b60006118668261181f565b91506118718361181f565b9250828210156118845761188361182c565b5b828203905092915050565b600061189a8261100e565b91506118a58361100e565b9250817fffffffffffffffffffffffffffffffffffffffffffffffffffffffffffffffff04831182151516156118de576118dd61182c565b5b828202905092915050565b60006118f48261100e565b91506118ff8361100e565b9250827fffffffffffffffffffffffffffffffffffffffffffffffffffffffffffffffff038211156119345761193361182c565b5b828201905092915050565b600061194a8261100e565b91507fffffffffffffffffffffffffffffffffffffffffffffffffffffffffffffffff820361197c5761197b61182c565b5b600182019050919050565b600081905092915050565b600061199d82611631565b6119a78185611987565b93506119b781856020860161164d565b80840191505092915050565b60006119cf8284611992565b915081905092915050565b7f4e487b7100000000000000000000000000000000000000000000000000000000600052601260045260246000fd5b6000611a148261100e565b9150611a1f8361100e565b925082611a2f57611a2e6119da565b5b828206905092915050565b7f616464506f6c696379206572726f723a20696e76616c6964206578706572737360008201527f696f6e2100000000000000000000000000000000000000000000000000000000602082015250565b6000611a96602483611553565b9150611aa182611a3a565b604082019050919050565b60006020820190508181036000830152611ac581611a89565b9050919050565b7f616464506f6c696379206572726f723a206f70657261746f722073686f756c6460008201527f206265203e2c203c206f72203d00000000000000000000000000000000000000602082015250565b6000611b28602d83611553565b9150611b3382611acc565b604082019050919050565b60006020820190508181036000830152611b5781611b1b565b905091905056fea26469706673582212208261ffe7814c002d264e00e313df4decbb6d35286e344ccb1a02baaaae735c6b64736f6c634300080f0033",
  "immutableReferences": {},
  "source": "// SPDX-License-Identifier:MIT\r\npragma solidity >=0.4.22 <0.9.0;\r\n\r\n\r\ncontract APSC {\r\n\r\n //variables\r\n    address owner;\r\n\r\n    // constructor\r\n    constructor() {\r\n        owner = msg.sender;\r\n    }\r\n\r\n    //Event    \r\n    event AddPolicyEvent(\r\n         uint requestId,\r\n        address resource,\r\n        string[] sa,\r\n        string[] oa,\r\n        string action       \r\n    );\r\n    event UpdatePolicyEvent(\r\n         uint requestId,\r\n        address resource,\r\n        string[] sa,\r\n        string[] oa,\r\n        string action        \r\n    );\r\n    event DeletePolicyEvent(\r\n         uint requestId,\r\n        address resource,\r\n        string[] sa,\r\n        string[] oa,\r\n        string action       \r\n    );\r\n    event CallbackAddPolicyEvent(uint requestId, bool result);\r\n    event CallbackUpdatePolicyEvent(uint requestId, bool result);\r\n    event CallbackDeletePolicyEvent(uint requestId, bool result);\r\n    \r\n\r\n     \r\n\r\n    // add Policy\r\n    function addPolicy(\r\n        uint _requestId,       //Request order Id\r\n        address _resource,     //Object Address\r\n        string[] memory _sa,   //Subject Attributes\r\n        string[] memory _oa,   //Object Attributes\r\n        string memory _action  //Operation\r\n    )\r\n        public\r\n    {\r\n \r\n        require(msg.sender == owner, \"addPolicy error: Caller is not owner!\");  \r\n        require(_sa.length % 2 != 0, \"addPolicy error: invalid experssion!\");\r\n        require(_oa.length % 2 != 0, \"addPolicy error: invalid experssion!\");\r\n\r\n        for (uint256 i = 0; i < _sa.length; i += 4) {\r\n            if (\r\n                !stringCompare(_sa[i + 2], \">\") &&\r\n                !stringCompare(_sa[i + 2], \"<\") &&\r\n                !stringCompare(_sa[i + 2], \"=\") &&\r\n                !stringCompare(_sa[i + 2], \"!=\")\r\n            ) {\r\n                revert(\"addPolicy error: operator should be >, < or =\");\r\n            }\r\n        }\r\n\r\n        for (uint256 i = 0; i < _oa.length; i += 4) {\r\n            if (\r\n                !stringCompare(_oa[i + 2], \">\") &&\r\n                !stringCompare(_oa[i + 2], \"<\") &&\r\n                !stringCompare(_oa[i + 2], \"=\") &&\r\n                !stringCompare(_oa[i + 2], \"!=\")\r\n            ) {\r\n                revert(\"addPolicy error: operator should be >, < or =\");\r\n            }\r\n        } \r\n         \r\n        emit AddPolicyEvent( _requestId,_resource, _sa, _oa, _action);\r\n    }\r\n\r\n    function callbackAddPolicy(uint requestId, bool isOk) public {       \r\n        emit CallbackAddPolicyEvent(requestId , isOk);\r\n    }\r\n\r\n\r\n\r\n    // update Policy\r\n    function updatePolicy(\r\n        uint _requestId,       //Request order Id\r\n        address _resource,     //Object Address\r\n        string[] memory _sa,   //Subject Attributes\r\n        string[] memory _oa,   //Object Attributes\r\n        string memory _action  //Operation\r\n    )\r\n        public\r\n    {\r\n \r\n        require(msg.sender == owner, \"addPolicy error: Caller is not owner!\"); \r\n        require(_sa.length % 2 != 0, \"addPolicy error: invalid experssion!\");\r\n        require(_oa.length % 2 != 0, \"addPolicy error: invalid experssion!\");\r\n\r\n        for (uint256 i = 0; i < _sa.length; i += 4) {\r\n            if (\r\n                !stringCompare(_sa[i + 2], \">\") &&\r\n                !stringCompare(_sa[i + 2], \"<\") &&\r\n                !stringCompare(_sa[i + 2], \"=\") &&\r\n                !stringCompare(_sa[i + 2], \"!=\")\r\n            ) {\r\n                revert(\"addPolicy error: operator should be >, < or =\");\r\n            }\r\n        }\r\n\r\n        for (uint256 i = 0; i < _oa.length; i += 4) {\r\n            if (\r\n                !stringCompare(_oa[i + 2], \">\") &&\r\n                !stringCompare(_oa[i + 2], \"<\") &&\r\n                !stringCompare(_oa[i + 2], \"=\") &&\r\n                !stringCompare(_oa[i + 2], \"!=\")\r\n            ) {\r\n                revert(\"addPolicy error: operator should be >, < or =\");\r\n            }\r\n        } \r\n         \r\n        emit UpdatePolicyEvent( _requestId,_resource, _sa, _oa, _action);\r\n    }\r\n\r\n    function callbackUpdatePolicy(uint requestId, bool isOk) public {       \r\n        emit CallbackUpdatePolicyEvent(requestId , isOk);\r\n    }\r\n   \r\n    \r\n\r\n    // delete Policy\r\n    function deletePolicy(\r\n        uint _requestId,       //Request order Id\r\n        address _resource,     //Object Address\r\n        string[] memory _sa,   //Subject Attributes\r\n        string[] memory _oa,   //Object Attributes\r\n        string memory _action  //Operation\r\n    )\r\n        public\r\n    {\r\n \r\n        require(msg.sender == owner, \"addPolicy error: Caller is not owner!\");     \r\n         \r\n        emit DeletePolicyEvent( _requestId,_resource, _sa, _oa, _action);\r\n    }\r\n\r\n    function callbackDeletePolicy(uint requestId, bool isOk) public {       \r\n        emit CallbackDeletePolicyEvent(requestId , isOk);\r\n    }\r\n\r\n    function stringCompare(string memory a, string memory b)\r\n        public\r\n        pure\r\n        returns (bool)\r\n    {\r\n        bytes memory _a = bytes(a);\r\n        bytes memory _b = bytes(b);\r\n        if (_a.length != _b.length) {\r\n            return false;\r\n        } else {\r\n            if (_a.length == 1) {\r\n                return _a[0] == _b[0];\r\n            } else {\r\n                return\r\n                    keccak256(abi.encodePacked(a)) ==\r\n                    keccak256(abi.encodePacked(b));\r\n            }\r\n        }\r\n    }\r\n\r\n     function stringToUint(string memory s)\r\n        public\r\n        pure\r\n        returns (uint256 result)\r\n    {\r\n        bytes memory b = bytes(s);\r\n        uint256 i;\r\n        result = 0;\r\n        for (i = 0; i < b.length; i++) {\r\n            uint8 c = uint8(b[i]);\r\n            if (c >= 48 && c <= 57) {\r\n                result = result * 10 + (c - 48);\r\n            }\r\n        }\r\n    }\r\n\r\n}",
  "sourcePath": "C:\\final\\Root\\contracts\\APSC.sol",
  "compiler": {
    "name": "solc",
    "version": "0.8.15+commit.e14f2714.Emscripten.clang"
  },
  "schemaVersion": "3.4.8",
  "updatedAt": "2023-01-11T17:08:44.269Z",
  "networkType": "ethereum",
  "devdoc": {
    "kind": "dev",
    "methods": {},
    "version": 1
  },
  "userdoc": {
    "kind": "user",
    "methods": {},
    "version": 1
  }
}