{
  "contractName": "SRMC",
  "abi": [
    {
      "anonymous": false,
      "inputs": [
        {
          "indexed": false,
          "internalType": "uint256",
          "name": "requestId",
          "type": "uint256"
        },
        {
          "indexed": false,
          "internalType": "address",
          "name": "from",
          "type": "address"
        },
        {
          "indexed": false,
          "internalType": "address",
          "name": "resource",
          "type": "address"
        },
        {
          "indexed": false,
          "internalType": "string",
          "name": "action",
          "type": "string"
        }
      ],
      "name": "AccessControlEvent",
      "type": "event"
    },
    {
      "anonymous": false,
      "inputs": [
        {
          "indexed": false,
          "internalType": "uint256",
          "name": "requestId",
          "type": "uint256"
        },
        {
          "indexed": false,
          "internalType": "string",
          "name": "result",
          "type": "string"
        }
      ],
      "name": "CallbackAccessControlEvent",
      "type": "event"
    },
    {
      "anonymous": false,
      "inputs": [
        {
          "indexed": true,
          "internalType": "address",
          "name": "from",
          "type": "address"
        },
        {
          "indexed": false,
          "internalType": "string",
          "name": "result",
          "type": "string"
        }
      ],
      "name": "ReturnAccessResult",
      "type": "event"
    },
    {
      "inputs": [
        {
          "internalType": "uint256",
          "name": "requestId",
          "type": "uint256"
        },
        {
          "internalType": "address",
          "name": "_resource",
          "type": "address"
        },
        {
          "internalType": "string",
          "name": "_action",
          "type": "string"
        }
      ],
      "name": "accessControl",
      "outputs": [],
      "stateMutability": "nonpayable",
      "type": "function"
    },
    {
      "inputs": [
        {
          "internalType": "uint256",
          "name": "_requestId",
          "type": "uint256"
        },
        {
          "internalType": "bool",
          "name": "sa_result",
          "type": "bool"
        },
        {
          "internalType": "bool",
          "name": "oa_result",
          "type": "bool"
        }
      ],
      "name": "callbackAccessControl",
      "outputs": [],
      "stateMutability": "nonpayable",
      "type": "function"
    }
  ],
  "bytecode": "0x608060405234801561001057600080fd5b50610641806100206000396000f3fe608060405234801561001057600080fd5b50600436106100365760003560e01c806317676e4c1461003b57806398dd758314610057575b600080fd5b6100556004803603810190610050919061032b565b610073565b005b610071600480360381019061006c91906103d2565b6100b5565b005b7f71750feaf3329ab3cf4a12b2a7e0bf7e99b22c543f8cdc6effbd9ea78ba4794a833384846040516100a894939291906104cb565b60405180910390a1505050565b8180156100bf5750805b15610100577fdd240fcbda09a76aeab377619e463f3515f4820c45a11f70da7ef10560ddf481836040516100f39190610563565b60405180910390a1610138565b7fdd240fcbda09a76aeab377619e463f3515f4820c45a11f70da7ef10560ddf4818360405161012f91906105dd565b60405180910390a15b505050565b6000604051905090565b600080fd5b600080fd5b6000819050919050565b61016481610151565b811461016f57600080fd5b50565b6000813590506101818161015b565b92915050565b600073ffffffffffffffffffffffffffffffffffffffff82169050919050565b60006101b282610187565b9050919050565b6101c2816101a7565b81146101cd57600080fd5b50565b6000813590506101df816101b9565b92915050565b600080fd5b600080fd5b6000601f19601f8301169050919050565b7f4e487b7100000000000000000000000000000000000000000000000000000000600052604160045260246000fd5b610238826101ef565b810181811067ffffffffffffffff8211171561025757610256610200565b5b80604052505050565b600061026a61013d565b9050610276828261022f565b919050565b600067ffffffffffffffff82111561029657610295610200565b5b61029f826101ef565b9050602081019050919050565b82818337600083830152505050565b60006102ce6102c98461027b565b610260565b9050828152602081018484840111156102ea576102e96101ea565b5b6102f58482856102ac565b509392505050565b600082601f830112610312576103116101e5565b5b81356103228482602086016102bb565b91505092915050565b60008060006060848603121561034457610343610147565b5b600061035286828701610172565b9350506020610363868287016101d0565b925050604084013567ffffffffffffffff8111156103845761038361014c565b5b610390868287016102fd565b9150509250925092565b60008115159050919050565b6103af8161039a565b81146103ba57600080fd5b50565b6000813590506103cc816103a6565b92915050565b6000806000606084860312156103eb576103ea610147565b5b60006103f986828701610172565b935050602061040a868287016103bd565b925050604061041b868287016103bd565b9150509250925092565b61042e81610151565b82525050565b61043d816101a7565b82525050565b600081519050919050565b600082825260208201905092915050565b60005b8381101561047d578082015181840152602081019050610462565b8381111561048c576000848401525b50505050565b600061049d82610443565b6104a7818561044e565b93506104b781856020860161045f565b6104c0816101ef565b840191505092915050565b60006080820190506104e06000830187610425565b6104ed6020830186610434565b6104fa6040830185610434565b818103606083015261050c8184610492565b905095945050505050565b7f416c6c6f77000000000000000000000000000000000000000000000000000000600082015250565b600061054d60058361044e565b915061055882610517565b602082019050919050565b60006040820190506105786000830184610425565b818103602083015261058981610540565b905092915050565b7f44656e7900000000000000000000000000000000000000000000000000000000600082015250565b60006105c760048361044e565b91506105d282610591565b602082019050919050565b60006040820190506105f26000830184610425565b8181036020830152610603816105ba565b90509291505056fea264697066735822122007cc005ad1bd3cef4d05179b954c46716f6df6f6f09b1a2de79f156ca14a9ccf64736f6c634300080f0033",
  "immutableReferences": {},
  "source": "// SPDX-License-Identifier:MIT\r\npragma solidity >=0.4.22 <0.9.0;\r\n\r\n \r\n\r\ncontract SRMC {\r\n\r\n    \r\n\r\n    //Event\r\n    event ReturnAccessResult(address indexed from, string result);    \r\n    event AccessControlEvent(uint requestId, address from, address resource, string action);\r\n    event CallbackAccessControlEvent(uint requestId , string result);\r\n\r\n      \r\n\r\n    //check for access control      \r\n    function accessControl(uint requestId, address _resource, string memory _action) public {            \r\n        emit AccessControlEvent(requestId ,  msg.sender, _resource, _action );\r\n    }\r\n\r\n    function callbackAccessControl(uint _requestId, bool sa_result, bool oa_result) public\r\n    {         \r\n        if (sa_result && oa_result)\r\n            emit CallbackAccessControlEvent(_requestId , \"Allow\" );\r\n        else\r\n            emit CallbackAccessControlEvent(_requestId , \"Deny\" );\r\n    }\r\n    \r\n\r\n     \r\n}\r\n",
  "sourcePath": "C:\\final\\Root\\contracts\\SRMC.sol",
  "compiler": {
    "name": "solc",
    "version": "0.8.15+commit.e14f2714.Emscripten.clang"
  },
  "schemaVersion": "3.4.8",
  "updatedAt": "2023-01-11T17:08:44.274Z",
  "networkType": "ethereum",
  "devdoc": {
    "kind": "dev",
    "methods": {},
    "version": 1
  },
  "userdoc": {
    "kind": "user",
    "methods": {},
    "version": 1
  }
}