{
  "contractName": "SubjectGroup",
  "abi": [
    {
      "inputs": [
        {
          "internalType": "address",
          "name": "_address",
          "type": "address"
        }
      ],
      "name": "register",
      "outputs": [],
      "stateMutability": "nonpayable",
      "type": "function"
    },
    {
      "inputs": [
        {
          "internalType": "address",
          "name": "_subject",
          "type": "address"
        },
        {
          "internalType": "string[]",
          "name": "_attr",
          "type": "string[]"
        }
      ],
      "name": "addAttribute",
      "outputs": [],
      "stateMutability": "nonpayable",
      "type": "function"
    },
    {
      "inputs": [
        {
          "internalType": "address",
          "name": "_address",
          "type": "address"
        }
      ],
      "name": "getAttribute",
      "outputs": [
        {
          "internalType": "string[]",
          "name": "_attrValue",
          "type": "string[]"
        }
      ],
      "stateMutability": "view",
      "type": "function"
    }
  ],
  "bytecode": "0x608060405234801561001057600080fd5b50610aaa806100206000396000f3fe608060405234801561001057600080fd5b50600436106100415760003560e01c80632e08b6c7146100465780634420e48614610076578063d7c7fe9014610092575b600080fd5b610060600480360381019061005b919061036b565b6100ae565b60405161006d91906104f3565b60405180910390f35b610090600480360381019061008b919061036b565b6101c5565b005b6100ac60048036038101906100a79190610730565b6101c8565b005b60606000808373ffffffffffffffffffffffffffffffffffffffff1673ffffffffffffffffffffffffffffffffffffffff168152602001908152602001600020805480602002602001604051908101604052809291908181526020016000905b828210156101ba57838290600052602060002001805461012d906107bb565b80601f0160208091040260200160405190810160405280929190818152602001828054610159906107bb565b80156101a65780601f1061017b576101008083540402835291602001916101a6565b820191906000526020600020905b81548152906001019060200180831161018957829003601f168201915b50505050508152602001906001019061010e565b505050509050919050565b50565b806000808473ffffffffffffffffffffffffffffffffffffffff1673ffffffffffffffffffffffffffffffffffffffff168152602001908152602001600020908051906020019061021a92919061021f565b505050565b828054828255906000526020600020908101928215610267579160200282015b8281111561026657825182908161025691906109a2565b509160200191906001019061023f565b5b5090506102749190610278565b5090565b5b80821115610298576000818161028f919061029c565b50600101610279565b5090565b5080546102a8906107bb565b6000825580601f106102ba57506102d9565b601f0160209004906000526020600020908101906102d891906102dc565b5b50565b5b808211156102f55760008160009055506001016102dd565b5090565b6000604051905090565b600080fd5b600080fd5b600073ffffffffffffffffffffffffffffffffffffffff82169050919050565b60006103388261030d565b9050919050565b6103488161032d565b811461035357600080fd5b50565b6000813590506103658161033f565b92915050565b60006020828403121561038157610380610303565b5b600061038f84828501610356565b91505092915050565b600081519050919050565b600082825260208201905092915050565b6000819050602082019050919050565b600081519050919050565b600082825260208201905092915050565b60005b838110156103fe5780820151818401526020810190506103e3565b8381111561040d576000848401525b50505050565b6000601f19601f8301169050919050565b600061042f826103c4565b61043981856103cf565b93506104498185602086016103e0565b61045281610413565b840191505092915050565b60006104698383610424565b905092915050565b6000602082019050919050565b600061048982610398565b61049381856103a3565b9350836020820285016104a5856103b4565b8060005b858110156104e157848403895281516104c2858261045d565b94506104cd83610471565b925060208a019950506001810190506104a9565b50829750879550505050505092915050565b6000602082019050818103600083015261050d818461047e565b905092915050565b600080fd5b7f4e487b7100000000000000000000000000000000000000000000000000000000600052604160045260246000fd5b61055282610413565b810181811067ffffffffffffffff821117156105715761057061051a565b5b80604052505050565b60006105846102f9565b90506105908282610549565b919050565b600067ffffffffffffffff8211156105b0576105af61051a565b5b602082029050602081019050919050565b600080fd5b600080fd5b600067ffffffffffffffff8211156105e6576105e561051a565b5b6105ef82610413565b9050602081019050919050565b82818337600083830152505050565b600061061e610619846105cb565b61057a565b90508281526020810184848401111561063a576106396105c6565b5b6106458482856105fc565b509392505050565b600082601f83011261066257610661610515565b5b813561067284826020860161060b565b91505092915050565b600061068e61068984610595565b61057a565b905080838252602082019050602084028301858111156106b1576106b06105c1565b5b835b818110156106f857803567ffffffffffffffff8111156106d6576106d5610515565b5b8086016106e3898261064d565b855260208501945050506020810190506106b3565b5050509392505050565b600082601f83011261071757610716610515565b5b813561072784826020860161067b565b91505092915050565b6000806040838503121561074757610746610303565b5b600061075585828601610356565b925050602083013567ffffffffffffffff81111561077657610775610308565b5b61078285828601610702565b9150509250929050565b7f4e487b7100000000000000000000000000000000000000000000000000000000600052602260045260246000fd5b600060028204905060018216806107d357607f821691505b6020821081036107e6576107e561078c565b5b50919050565b60008190508160005260206000209050919050565b60006020601f8301049050919050565b600082821b905092915050565b60006008830261084e7fffffffffffffffffffffffffffffffffffffffffffffffffffffffffffffffff82610811565b6108588683610811565b95508019841693508086168417925050509392505050565b6000819050919050565b6000819050919050565b600061089f61089a61089584610870565b61087a565b610870565b9050919050565b6000819050919050565b6108b983610884565b6108cd6108c5826108a6565b84845461081e565b825550505050565b600090565b6108e26108d5565b6108ed8184846108b0565b505050565b5b81811015610911576109066000826108da565b6001810190506108f3565b5050565b601f82111561095657610927816107ec565b61093084610801565b8101602085101561093f578190505b61095361094b85610801565b8301826108f2565b50505b505050565b600082821c905092915050565b60006109796000198460080261095b565b1980831691505092915050565b60006109928383610968565b9150826002028217905092915050565b6109ab826103c4565b67ffffffffffffffff8111156109c4576109c361051a565b5b6109ce82546107bb565b6109d9828285610915565b600060209050601f831160018114610a0c57600084156109fa578287015190505b610a048582610986565b865550610a6c565b601f198416610a1a866107ec565b60005b82811015610a4257848901518255600182019150602085019450602081019050610a1d565b86831015610a5f5784890151610a5b601f891682610968565b8355505b6001600288020188555050505b50505050505056fea26469706673582212202d17f4581e25312367b8638396ef8c8bf5c6bf2b989236878ec29370ceebd70864736f6c634300080f0033",
  "immutableReferences": {},
  "source": "// SPDX-License-Identifier:MIT\r\npragma solidity >=0.4.22 <0.9.0;\r\n  \r\n \r\n\r\ncontract SubjectGroup \r\n{\r\n  \r\n  //Register a Subject\r\n  function register(address _address) public\r\n   {                      \r\n        // lookupTable[_address].isValued = true;   \r\n   } \r\n   mapping(address => string[]) internal lookupTable;\r\n\r\n     \r\n\r\n    //Add subject Attribute\r\n    function addAttribute(\r\n        address _subject,     //Subject Address\r\n        string[] memory _attr //Subject Attributes\r\n    ) public {\r\n\r\n        lookupTable[_subject] = _attr ;        \r\n    }\r\n\r\n    \r\n    //get attributes of a subject by Address\r\n    function getAttribute(address _address)\r\n        public\r\n        view\r\n        returns (string[] memory _attrValue)\r\n    {        \r\n        return lookupTable[_address];        \r\n\r\n    }\r\n\r\n}",
  "sourcePath": "C:\\final\\SubjectGroup\\contracts\\SubjectGroup.sol",
  "compiler": {
    "name": "solc",
    "version": "0.8.15+commit.e14f2714.Emscripten.clang"
  },
  "schemaVersion": "3.4.8",
  "updatedAt": "2023-01-09T08:30:09.422Z",
  "devdoc": {
    "kind": "dev",
    "methods": {},
    "version": 1
  },
  "userdoc": {
    "kind": "user",
    "methods": {},
    "version": 1
  }
}