{
  "contractName": "SubjectContract",
  "abi": [
    {
      "inputs": [
        {
          "internalType": "address",
          "name": "_address",
          "type": "address"
        }
      ],
      "name": "register",
      "outputs": [],
      "stateMutability": "nonpayable",
      "type": "function"
    },
    {
      "inputs": [
        {
          "internalType": "address",
          "name": "_resource",
          "type": "address"
        },
        {
          "internalType": "string[]",
          "name": "_attrs",
          "type": "string[]"
        },
        {
          "internalType": "string",
          "name": "_action",
          "type": "string"
        }
      ],
      "name": "addPolicy",
      "outputs": [],
      "stateMutability": "nonpayable",
      "type": "function"
    },
    {
      "inputs": [
        {
          "internalType": "address",
          "name": "_address",
          "type": "address"
        },
        {
          "internalType": "string",
          "name": "_attrName",
          "type": "string"
        },
        {
          "internalType": "string",
          "name": "_attrValue",
          "type": "string"
        },
        {
          "internalType": "string[]",
          "name": "_parent",
          "type": "string[]"
        }
      ],
      "name": "addAttribute",
      "outputs": [],
      "stateMutability": "nonpayable",
      "type": "function"
    },
    {
      "inputs": [
        {
          "internalType": "address",
          "name": "_address",
          "type": "address"
        },
        {
          "internalType": "string",
          "name": "_attrName",
          "type": "string"
        }
      ],
      "name": "getAttribute",
      "outputs": [
        {
          "internalType": "string[]",
          "name": "_attrValue",
          "type": "string[]"
        }
      ],
      "stateMutability": "view",
      "type": "function"
    },
    {
      "inputs": [
        {
          "internalType": "string",
          "name": "a",
          "type": "string"
        },
        {
          "internalType": "string",
          "name": "b",
          "type": "string"
        }
      ],
      "name": "stringCompare",
      "outputs": [
        {
          "internalType": "bool",
          "name": "",
          "type": "bool"
        }
      ],
      "stateMutability": "pure",
      "type": "function"
    },
    {
      "inputs": [
        {
          "internalType": "string",
          "name": "s",
          "type": "string"
        }
      ],
      "name": "stringToUint",
      "outputs": [
        {
          "internalType": "uint256",
          "name": "result",
          "type": "uint256"
        }
      ],
      "stateMutability": "pure",
      "type": "function"
    }
  ],
  "bytecode": "0x608060405234801561001057600080fd5b5061180a806100206000396000f3fe608060405234801561001057600080fd5b50600436106100625760003560e01c80631bd95155146100675780634420e486146100975780635449e2fc146100b357806360353db9146100e3578063b5facd9014610113578063f99a258d1461012f575b600080fd5b610081600480360381019061007c9190610ce5565b61014b565b60405161008e9190610d47565b60405180910390f35b6100b160048036038101906100ac9190610dc0565b6101eb565b005b6100cd60048036038101906100c89190610ded565b6102c8565b6040516100da9190610f93565b60405180910390f35b6100fd60048036038101906100f89190610fb5565b6106de565b60405161010a9190611048565b60405180910390f35b61012d60048036038101906101289190611149565b6107ec565b005b61014960048036038101906101449190611204565b6109de565b005b6000808290506000809250600090505b81518110156101e45760008282815181106101795761017861128f565b5b602001015160f81c60f81b60f81c905060308160ff16101580156101a1575060398160ff1611155b156101d0576030816101b391906112fa565b60ff16600a856101c3919061132e565b6101cd9190611388565b93505b5080806101dc906113de565b91505061015b565b5050919050565b336000808373ffffffffffffffffffffffffffffffffffffffff1673ffffffffffffffffffffffffffffffffffffffff16815260200190815260200160002060000160016101000a81548173ffffffffffffffffffffffffffffffffffffffff021916908373ffffffffffffffffffffffffffffffffffffffff16021790555060016000808373ffffffffffffffffffffffffffffffffffffffff1673ffffffffffffffffffffffffffffffffffffffff16815260200190815260200160002060000160006101000a81548160ff02191690831515021790555050565b6060826000808273ffffffffffffffffffffffffffffffffffffffff1673ffffffffffffffffffffffffffffffffffffffff16815260200190815260200160002060000160009054906101000a900460ff16610359576040517f08c379a000000000000000000000000000000000000000000000000000000000815260040161035090611483565b60405180910390fd5b600060016000808773ffffffffffffffffffffffffffffffffffffffff1673ffffffffffffffffffffffffffffffffffffffff168152602001908152602001600020600101856040516103ac91906114df565b9081526020016040518091039020600201805490506103cb9190611388565b67ffffffffffffffff8111156103e4576103e3610bba565b5b60405190808252806020026020018201604052801561041757816020015b60608152602001906001900390816104025790505b5090506000808673ffffffffffffffffffffffffffffffffffffffff1673ffffffffffffffffffffffffffffffffffffffff1681526020019081526020016000206001018460405161046991906114df565b9081526020016040518091039020600101805461048590611525565b80601f01602080910402602001604051908101604052809291908181526020018280546104b190611525565b80156104fe5780601f106104d3576101008083540402835291602001916104fe565b820191906000526020600020905b8154815290600101906020018083116104e157829003601f168201915b5050505050816000815181106105175761051661128f565b5b602002602001018190525060005b6000808773ffffffffffffffffffffffffffffffffffffffff1673ffffffffffffffffffffffffffffffffffffffff1681526020019081526020016000206001018560405161057491906114df565b9081526020016040518091039020600201805490508110156106d2576000808773ffffffffffffffffffffffffffffffffffffffff1673ffffffffffffffffffffffffffffffffffffffff168152602001908152602001600020600101856040516105df91906114df565b908152602001604051809103902060020181815481106106025761060161128f565b5b90600052602060002001805461061790611525565b80601f016020809104026020016040519081016040528092919081815260200182805461064390611525565b80156106905780601f1061066557610100808354040283529160200191610690565b820191906000526020600020905b81548152906001019060200180831161067357829003601f168201915b5050505050826001836106a39190611388565b815181106106b4576106b361128f565b5b602002602001018190525080806106ca906113de565b915050610525565b50809250505092915050565b600080839050600083905080518251146106fd576000925050506107e6565b6001825103610792578060008151811061071a5761071961128f565b5b602001015160f81c60f81b7effffffffffffffffffffffffffffffffffffffffffffffffffffffffffffff19168260008151811061075b5761075a61128f565b5b602001015160f81c60f81b7effffffffffffffffffffffffffffffffffffffffffffffffffffffffffffff191614925050506107e6565b836040516020016107a391906114df565b60405160208183030381529060405280519060200120856040516020016107ca91906114df565b6040516020818303038152906040528051906020012014925050505b92915050565b836000808273ffffffffffffffffffffffffffffffffffffffff1673ffffffffffffffffffffffffffffffffffffffff16815260200190815260200160002060000160009054906101000a900460ff1661087b576040517f08c379a000000000000000000000000000000000000000000000000000000000815260040161087290611483565b60405180910390fd5b826000808773ffffffffffffffffffffffffffffffffffffffff1673ffffffffffffffffffffffffffffffffffffffff168152602001908152602001600020600101856040516108cb91906114df565b908152602001604051809103902060010190816108e89190611702565b50816000808773ffffffffffffffffffffffffffffffffffffffff1673ffffffffffffffffffffffffffffffffffffffff1681526020019081526020016000206001018560405161093991906114df565b9081526020016040518091039020600201908051906020019061095d929190610ab1565b5060016000808773ffffffffffffffffffffffffffffffffffffffff1673ffffffffffffffffffffffffffffffffffffffff168152602001908152602001600020600101856040516109af91906114df565b908152602001604051809103902060000160006101000a81548160ff0219169083151502179055505050505050565b600160008473ffffffffffffffffffffffffffffffffffffffff1673ffffffffffffffffffffffffffffffffffffffff16815260200190815260200160002081604051610a2b91906114df565b908152602001604051809103902060405180604001604052808481526020018381525090806001815401808255809150506001900390600052602060002090600202016000909190919091506000820151816000019080519060200190610a93929190610ab1565b506020820151816001019081610aa99190611702565b505050505050565b828054828255906000526020600020908101928215610af9579160200282015b82811115610af8578251829081610ae89190611702565b5091602001919060010190610ad1565b5b509050610b069190610b0a565b5090565b5b80821115610b2a5760008181610b219190610b2e565b50600101610b0b565b5090565b508054610b3a90611525565b6000825580601f10610b4c5750610b6b565b601f016020900490600052602060002090810190610b6a9190610b6e565b5b50565b5b80821115610b87576000816000905550600101610b6f565b5090565b6000604051905090565b600080fd5b600080fd5b600080fd5b600080fd5b6000601f19601f8301169050919050565b7f4e487b7100000000000000000000000000000000000000000000000000000000600052604160045260246000fd5b610bf282610ba9565b810181811067ffffffffffffffff82111715610c1157610c10610bba565b5b80604052505050565b6000610c24610b8b565b9050610c308282610be9565b919050565b600067ffffffffffffffff821115610c5057610c4f610bba565b5b610c5982610ba9565b9050602081019050919050565b82818337600083830152505050565b6000610c88610c8384610c35565b610c1a565b905082815260208101848484011115610ca457610ca3610ba4565b5b610caf848285610c66565b509392505050565b600082601f830112610ccc57610ccb610b9f565b5b8135610cdc848260208601610c75565b91505092915050565b600060208284031215610cfb57610cfa610b95565b5b600082013567ffffffffffffffff811115610d1957610d18610b9a565b5b610d2584828501610cb7565b91505092915050565b6000819050919050565b610d4181610d2e565b82525050565b6000602082019050610d5c6000830184610d38565b92915050565b600073ffffffffffffffffffffffffffffffffffffffff82169050919050565b6000610d8d82610d62565b9050919050565b610d9d81610d82565b8114610da857600080fd5b50565b600081359050610dba81610d94565b92915050565b600060208284031215610dd657610dd5610b95565b5b6000610de484828501610dab565b91505092915050565b60008060408385031215610e0457610e03610b95565b5b6000610e1285828601610dab565b925050602083013567ffffffffffffffff811115610e3357610e32610b9a565b5b610e3f85828601610cb7565b9150509250929050565b600081519050919050565b600082825260208201905092915050565b6000819050602082019050919050565b600081519050919050565b600082825260208201905092915050565b60005b83811015610eaf578082015181840152602081019050610e94565b83811115610ebe576000848401525b50505050565b6000610ecf82610e75565b610ed98185610e80565b9350610ee9818560208601610e91565b610ef281610ba9565b840191505092915050565b6000610f098383610ec4565b905092915050565b6000602082019050919050565b6000610f2982610e49565b610f338185610e54565b935083602082028501610f4585610e65565b8060005b85811015610f815784840389528151610f628582610efd565b9450610f6d83610f11565b925060208a01995050600181019050610f49565b50829750879550505050505092915050565b60006020820190508181036000830152610fad8184610f1e565b905092915050565b60008060408385031215610fcc57610fcb610b95565b5b600083013567ffffffffffffffff811115610fea57610fe9610b9a565b5b610ff685828601610cb7565b925050602083013567ffffffffffffffff81111561101757611016610b9a565b5b61102385828601610cb7565b9150509250929050565b60008115159050919050565b6110428161102d565b82525050565b600060208201905061105d6000830184611039565b92915050565b600067ffffffffffffffff82111561107e5761107d610bba565b5b602082029050602081019050919050565b600080fd5b60006110a76110a284611063565b610c1a565b905080838252602082019050602084028301858111156110ca576110c961108f565b5b835b8181101561111157803567ffffffffffffffff8111156110ef576110ee610b9f565b5b8086016110fc8982610cb7565b855260208501945050506020810190506110cc565b5050509392505050565b600082601f8301126111305761112f610b9f565b5b8135611140848260208601611094565b91505092915050565b6000806000806080858703121561116357611162610b95565b5b600061117187828801610dab565b945050602085013567ffffffffffffffff81111561119257611191610b9a565b5b61119e87828801610cb7565b935050604085013567ffffffffffffffff8111156111bf576111be610b9a565b5b6111cb87828801610cb7565b925050606085013567ffffffffffffffff8111156111ec576111eb610b9a565b5b6111f88782880161111b565b91505092959194509250565b60008060006060848603121561121d5761121c610b95565b5b600061122b86828701610dab565b935050602084013567ffffffffffffffff81111561124c5761124b610b9a565b5b6112588682870161111b565b925050604084013567ffffffffffffffff81111561127957611278610b9a565b5b61128586828701610cb7565b9150509250925092565b7f4e487b7100000000000000000000000000000000000000000000000000000000600052603260045260246000fd5b600060ff82169050919050565b7f4e487b7100000000000000000000000000000000000000000000000000000000600052601160045260246000fd5b6000611305826112be565b9150611310836112be565b925082821015611323576113226112cb565b5b828203905092915050565b600061133982610d2e565b915061134483610d2e565b9250817fffffffffffffffffffffffffffffffffffffffffffffffffffffffffffffffff048311821515161561137d5761137c6112cb565b5b828202905092915050565b600061139382610d2e565b915061139e83610d2e565b9250827fffffffffffffffffffffffffffffffffffffffffffffffffffffffffffffffff038211156113d3576113d26112cb565b5b828201905092915050565b60006113e982610d2e565b91507fffffffffffffffffffffffffffffffffffffffffffffffffffffffffffffffff820361141b5761141a6112cb565b5b600182019050919050565b600082825260208201905092915050565b7f41646472657373206e6f74207265676973746572656421000000000000000000600082015250565b600061146d601783611426565b915061147882611437565b602082019050919050565b6000602082019050818103600083015261149c81611460565b9050919050565b600081905092915050565b60006114b982610e75565b6114c381856114a3565b93506114d3818560208601610e91565b80840191505092915050565b60006114eb82846114ae565b915081905092915050565b7f4e487b7100000000000000000000000000000000000000000000000000000000600052602260045260246000fd5b6000600282049050600182168061153d57607f821691505b6020821081036115505761154f6114f6565b5b50919050565b60008190508160005260206000209050919050565b60006020601f8301049050919050565b600082821b905092915050565b6000600883026115b87fffffffffffffffffffffffffffffffffffffffffffffffffffffffffffffffff8261157b565b6115c2868361157b565b95508019841693508086168417925050509392505050565b6000819050919050565b60006115ff6115fa6115f584610d2e565b6115da565b610d2e565b9050919050565b6000819050919050565b611619836115e4565b61162d61162582611606565b848454611588565b825550505050565b600090565b611642611635565b61164d818484611610565b505050565b5b818110156116715761166660008261163a565b600181019050611653565b5050565b601f8211156116b65761168781611556565b6116908461156b565b8101602085101561169f578190505b6116b36116ab8561156b565b830182611652565b50505b505050565b600082821c905092915050565b60006116d9600019846008026116bb565b1980831691505092915050565b60006116f283836116c8565b9150826002028217905092915050565b61170b82610e75565b67ffffffffffffffff81111561172457611723610bba565b5b61172e8254611525565b611739828285611675565b600060209050601f83116001811461176c576000841561175a578287015190505b61176485826116e6565b8655506117cc565b601f19841661177a86611556565b60005b828110156117a25784890151825560018201915060208501945060208101905061177d565b868310156117bf57848901516117bb601f8916826116c8565b8355505b6001600288020188555050505b50505050505056fea26469706673582212207ecc946c6a052be96d6f20a6acbcbce5484450c541750f38a6795f9c00602fd264736f6c634300080f0033",
  "immutableReferences": {},
  "source": "// SPDX-License-Identifier:MIT\r\npragma solidity >=0.4.22 <0.9.0;\r\npragma experimental ABIEncoderV2;\r\n\r\n\r\ncontract SubjectContract {\r\n\r\n    //variables\r\n    mapping(address => Resource) internal lookupTable;\r\n    mapping(address => mapping(string => PolicyItem[])) internal policies;\r\n\r\n    //Struct\r\n    struct PolicyItem {\r\n        string[] attr; //Subject attributes\r\n        string action; //Operation\r\n    }\r\n\r\n    struct Resource {\r\n        bool isValued;\r\n        address manager;\r\n        mapping(string => AttrValue) attrbutes;\r\n    }\r\n\r\n    struct AttrValue {\r\n        bool isValued;        // check for duplicate \r\n        string value;         // attribute value\r\n        string[] parentAttr;  // parent attributes\r\n    }\r\n\r\n    //modifier\r\n    modifier isRegister(address _address) {\r\n        require(lookupTable[_address].isValued, \"Address not registered!\");\r\n        _;\r\n    }\r\n\r\n    modifier isAttributeExist(address _address, string memory _attrName) {\r\n        require(\r\n            !lookupTable[_address].attrbutes[_attrName].isValued,\r\n            \"add Attribute error: Attribute already exist!\"\r\n        );\r\n        _;\r\n    }\r\n \r\n\r\n    //Register Subject\r\n    function register(address _address) public {\r\n        lookupTable[_address].manager = msg.sender;\r\n        lookupTable[_address].isValued = true;\r\n    }\r\n\r\n    //add policy for Subject\r\n    function addPolicy(        \r\n        address _resource,     //Subject Address\r\n        string[] memory _attrs,//Subject Attributes\r\n        string memory _action  //Operation\r\n    ) public {         \r\n        policies[_resource][_action].push(PolicyItem(_attrs, _action));        \r\n    } \r\n    \r\n    //add Attribute for Subject\r\n    function addAttribute(\r\n        address _address,        //Subject Address\r\n        string memory _attrName, //Subject Attribute name\r\n        string memory _attrValue,//Subject Attribute value\r\n        string[] memory _parent  //Subject Attribute parents\r\n    ) public isRegister(_address) {\r\n        lookupTable[_address].attrbutes[_attrName].value = _attrValue;\r\n        lookupTable[_address].attrbutes[_attrName].parentAttr = _parent;\r\n        lookupTable[_address].attrbutes[_attrName].isValued = true;\r\n    }\r\n  \r\n\r\n    // find attributes\r\n    function getAttribute(address _address, string memory _attrName)\r\n        public\r\n        view\r\n        isRegister(_address)\r\n        returns (string[] memory _attrValue)\r\n    {\r\n        string[] memory result = new string[](\r\n            lookupTable[_address].attrbutes[_attrName].parentAttr.length + 1\r\n        );\r\n\r\n        result[0] = lookupTable[_address].attrbutes[_attrName].value;\r\n\r\n        for (\r\n            uint256 i = 0;\r\n            i < lookupTable[_address].attrbutes[_attrName].parentAttr.length;\r\n            i++\r\n        ) {\r\n            result[i + 1] = lookupTable[_address]\r\n                .attrbutes[_attrName]\r\n                .parentAttr[i];\r\n        }\r\n\r\n        return result;\r\n    }\r\n     \r\n\r\n    function fetchAttribute(address _resource, string[] memory _policyAttr)\r\n        private\r\n        view\r\n        returns (bool)\r\n    {\r\n        string[] memory attrValue;\r\n        uint256 expersionLength;\r\n\r\n        if (_policyAttr.length == 3) {\r\n            expersionLength = 1;\r\n        } else {\r\n            expersionLength = (_policyAttr.length / 3) + 2;\r\n        }\r\n        string[] memory expersion = new string[](expersionLength);\r\n        uint256 expersionCounter = 0;\r\n\r\n        for (uint256 i = 0; i < _policyAttr.length; i += 4) {\r\n            attrValue = getAttribute(_resource, _policyAttr[i]);\r\n            bool result = compareAttribute(\r\n                _policyAttr[i + 1],\r\n                attrValue,\r\n                _policyAttr[i + 2]\r\n            );\r\n\r\n            expersion[expersionCounter++] = result ? \"true\" : \"false\";\r\n\r\n            if (_policyAttr.length - (i + 3) > 0) {\r\n                expersion[expersionCounter++] = _policyAttr[i + 3];\r\n            }\r\n        }\r\n\r\n        return parseExperssion(expersion);\r\n    }\r\n\r\n    function compareAttribute(\r\n        string memory _policyAttrVal,\r\n        string[] memory _attrValue,\r\n        string memory _operator\r\n    ) private pure returns (bool) {\r\n        bool isExistsPolicy = false;\r\n\r\n        for (uint256 i = 0; i < _attrValue.length; i++) {\r\n            if (\r\n                stringCompare(_operator, \"=\") &&\r\n                (stringCompare(_attrValue[i], _policyAttrVal))\r\n            ) {\r\n                isExistsPolicy = true;\r\n                break;\r\n            } else if (\r\n                stringCompare(_operator, \"!=\") &&\r\n                (!stringCompare(_attrValue[i], _policyAttrVal))\r\n            ) {\r\n                isExistsPolicy = true;\r\n                break;\r\n            } else if (\r\n                stringCompare(_operator, \"<\") &&\r\n                (stringToUint(_attrValue[i]) <= stringToUint(_policyAttrVal))\r\n            ) {\r\n                isExistsPolicy = true;\r\n                break;\r\n            } else if (\r\n                stringCompare(_operator, \">\") &&\r\n                (stringToUint(_attrValue[i]) >= stringToUint(_policyAttrVal))\r\n            ) {\r\n                isExistsPolicy = true;\r\n                break;\r\n            }\r\n        }\r\n\r\n        return isExistsPolicy;\r\n    }\r\n\r\n    function parseExperssion(string[] memory _expersion)\r\n        private\r\n        pure\r\n        returns (bool)\r\n    {\r\n        bool flag = stringCompare(_expersion[0], \"true\") ? true : false;\r\n\r\n        if (_expersion.length == 1) return flag;\r\n\r\n        flag = compareExperssion(_expersion[1], flag, _expersion[2]);\r\n\r\n        for (uint256 i = 3; i < _expersion.length; i += 2) {\r\n            if (stringCompare(_expersion[i], \"or\")) {\r\n                flag = flag || stringCompare(_expersion[i + 1], \"true\")\r\n                    ? true\r\n                    : false;\r\n            } else if (stringCompare(_expersion[i], \"and\")) {\r\n                flag = flag && stringCompare(_expersion[i + 1], \"true\")\r\n                    ? true\r\n                    : false;\r\n            }\r\n        }\r\n\r\n        return flag;\r\n    }\r\n\r\n    function compareExperssion(\r\n        string memory opt,\r\n        bool val1,\r\n        string memory val2\r\n    ) private pure returns (bool) {\r\n        if (stringCompare(opt, \"or\")) {\r\n            return val1 || stringCompare(val2, \"true\") ? true : false;\r\n        } else if (stringCompare(opt, \"and\")) {\r\n            return val1 && stringCompare(val2, \"true\") ? true : false;\r\n        }\r\n\r\n        return false;\r\n    }\r\n\r\n    function stringCompare(string memory a, string memory b)\r\n        public\r\n        pure\r\n        returns (bool)\r\n    {\r\n        bytes memory _a = bytes(a);\r\n        bytes memory _b = bytes(b);\r\n        if (_a.length != _b.length) {\r\n            return false;\r\n        } else {\r\n            if (_a.length == 1) {\r\n                return _a[0] == _b[0];\r\n            } else {\r\n                return\r\n                    keccak256(abi.encodePacked(a)) ==\r\n                    keccak256(abi.encodePacked(b));\r\n            }\r\n        }\r\n    }\r\n\r\n     function stringToUint(string memory s)\r\n        public\r\n        pure\r\n        returns (uint256 result)\r\n    {\r\n        bytes memory b = bytes(s);\r\n        uint256 i;\r\n        result = 0;\r\n        for (i = 0; i < b.length; i++) {\r\n            uint8 c = uint8(b[i]);\r\n            if (c >= 48 && c <= 57) {\r\n                result = result * 10 + (c - 48);\r\n            }\r\n        }\r\n    }\r\n}\r\n",
  "sourcePath": "C:\\final\\SubjectGroup\\contracts\\SubjectContract.sol",
  "compiler": {
    "name": "solc",
    "version": "0.8.15+commit.e14f2714.Emscripten.clang"
  },
  "schemaVersion": "3.4.8",
  "updatedAt": "2023-01-09T15:33:44.983Z",
  "devdoc": {
    "kind": "dev",
    "methods": {},
    "version": 1
  },
  "userdoc": {
    "kind": "user",
    "methods": {},
    "version": 1
  }
}