{
  "contractName": "APMC",
  "abi": [
    {
      "inputs": [
        {
          "internalType": "address",
          "name": "_SAMC",
          "type": "address"
        }
      ],
      "stateMutability": "nonpayable",
      "type": "constructor"
    },
    {
      "inputs": [
        {
          "internalType": "address",
          "name": "_resource",
          "type": "address"
        },
        {
          "internalType": "string[]",
          "name": "_attrs",
          "type": "string[]"
        },
        {
          "internalType": "string",
          "name": "_action",
          "type": "string"
        }
      ],
      "name": "addPolicy",
      "outputs": [],
      "stateMutability": "nonpayable",
      "type": "function"
    },
    {
      "inputs": [
        {
          "internalType": "address",
          "name": "_resource",
          "type": "address"
        },
        {
          "internalType": "string[]",
          "name": "_attrs",
          "type": "string[]"
        },
        {
          "internalType": "string",
          "name": "_action",
          "type": "string"
        }
      ],
      "name": "updatePolicy",
      "outputs": [],
      "stateMutability": "nonpayable",
      "type": "function"
    },
    {
      "inputs": [
        {
          "internalType": "address",
          "name": "_resource",
          "type": "address"
        },
        {
          "internalType": "string",
          "name": "_action",
          "type": "string"
        }
      ],
      "name": "deletePolicy",
      "outputs": [],
      "stateMutability": "nonpayable",
      "type": "function"
    },
    {
      "inputs": [
        {
          "internalType": "address",
          "name": "_from",
          "type": "address"
        },
        {
          "internalType": "address",
          "name": "_resource",
          "type": "address"
        },
        {
          "internalType": "string",
          "name": "_action",
          "type": "string"
        }
      ],
      "name": "checkPolicy",
      "outputs": [
        {
          "internalType": "bool",
          "name": "",
          "type": "bool"
        },
        {
          "internalType": "uint256",
          "name": "",
          "type": "uint256"
        }
      ],
      "stateMutability": "view",
      "type": "function",
      "constant": true
    },
    {
      "inputs": [
        {
          "internalType": "string",
          "name": "a",
          "type": "string"
        },
        {
          "internalType": "string",
          "name": "b",
          "type": "string"
        }
      ],
      "name": "stringCompare",
      "outputs": [
        {
          "internalType": "bool",
          "name": "",
          "type": "bool"
        }
      ],
      "stateMutability": "pure",
      "type": "function",
      "constant": true
    },
    {
      "inputs": [
        {
          "internalType": "string",
          "name": "s",
          "type": "string"
        }
      ],
      "name": "stringToUint",
      "outputs": [
        {
          "internalType": "uint256",
          "name": "result",
          "type": "uint256"
        }
      ],
      "stateMutability": "pure",
      "type": "function",
      "constant": true
    }
  ],
  "bytecode": "0x60806040523480156200001157600080fd5b50604051620020c2380380620020c28339818101604052810190620000379190620000e8565b806000806101000a81548173ffffffffffffffffffffffffffffffffffffffff021916908373ffffffffffffffffffffffffffffffffffffffff160217905550506200011a565b600080fd5b600073ffffffffffffffffffffffffffffffffffffffff82169050919050565b6000620000b08262000083565b9050919050565b620000c281620000a3565b8114620000ce57600080fd5b50565b600081519050620000e281620000b7565b92915050565b6000602082840312156200010157620001006200007e565b5b60006200011184828501620000d1565b91505092915050565b611f98806200012a6000396000f3fe608060405234801561001057600080fd5b50600436106100625760003560e01c80631bd95155146100675780633825291e1461009757806355efd14d146100b357806360353db9146100e4578063b6a6419914610114578063f99a258d14610130575b600080fd5b610081600480360381019061007c9190611377565b61014c565b60405161008e91906113d9565b60405180910390f35b6100b160048036038101906100ac9190611538565b6101ec565b005b6100cd60048036038101906100c891906115c3565b6102bf565b6040516100db92919061164d565b60405180910390f35b6100fe60048036038101906100f99190611676565b610567565b60405161010b91906116ee565b60405180910390f35b61012e60048036038101906101299190611709565b610675565b005b61014a60048036038101906101459190611538565b6106e0565b005b6000808290506000809250600090505b81518110156101e557600082828151811061017a57610179611765565b5b602001015160f81c60f81b60f81c905060308160ff16101580156101a2575060398160ff1611155b156101d1576030816101b491906117d0565b60ff16600a856101c49190611804565b6101ce919061185e565b93505b5080806101dd906118b4565b91505061015c565b5050919050565b600160008473ffffffffffffffffffffffffffffffffffffffff1673ffffffffffffffffffffffffffffffffffffffff168152602001908152602001600020816040516102399190611976565b9081526020016040518091039020604051806040016040528084815260200183815250908060018154018082558091505060019003906000526020600020906002020160009091909190915060008201518160000190805190602001906102a19291906110c7565b5060208201518160010190816102b79190611b99565b505050505050565b60008060004290506000600160008773ffffffffffffffffffffffffffffffffffffffff1673ffffffffffffffffffffffffffffffffffffffff168152602001908152602001600020856040516103169190611976565b90815260200160405180910390208054905003610368576040517f08c379a000000000000000000000000000000000000000000000000000000000815260040161035f90611cc8565b60405180910390fd5b60005b600160008773ffffffffffffffffffffffffffffffffffffffff1673ffffffffffffffffffffffffffffffffffffffff168152602001908152602001600020856040516103b89190611976565b90815260200160405180910390208054905081101561055557600061052a88600160008a73ffffffffffffffffffffffffffffffffffffffff1673ffffffffffffffffffffffffffffffffffffffff168152602001908152602001600020886040516104249190611976565b9081526020016040518091039020848154811061044457610443611765565b5b9060005260206000209060020201600001805480602002602001604051908101604052809291908181526020016000905b82821015610521578382906000526020600020018054610494906119bc565b80601f01602080910402602001604051908101604052809291908181526020018280546104c0906119bc565b801561050d5780601f106104e25761010080835404028352916020019161050d565b820191906000526020600020905b8154815290600101906020018083116104f057829003601f168201915b505050505081526020019060010190610475565b505050506107b3565b90508015610541576001839450945050505061055f565b50808061054d906118b4565b91505061036b565b5060008192509250505b935093915050565b600080839050600083905080518251146105865760009250505061066f565b600182510361061b57806000815181106105a3576105a2611765565b5b602001015160f81c60f81b7effffffffffffffffffffffffffffffffffffffffffffffffffffffffffffff1916826000815181106105e4576105e3611765565b5b602001015160f81c60f81b7effffffffffffffffffffffffffffffffffffffffffffffffffffffffffffff1916149250505061066f565b8360405160200161062c9190611976565b60405160208183030381529060405280519060200120856040516020016106539190611976565b6040516020818303038152906040528051906020012014925050505b92915050565b600160008373ffffffffffffffffffffffffffffffffffffffff1673ffffffffffffffffffffffffffffffffffffffff168152602001908152602001600020816040516106c29190611976565b908152602001604051809103902060006106dc9190611120565b5050565b600160008473ffffffffffffffffffffffffffffffffffffffff1673ffffffffffffffffffffffffffffffffffffffff1681526020019081526020016000208160405161072d9190611976565b9081526020016040518091039020604051806040016040528084815260200183815250908060018154018082558091505060019003906000526020600020906002020160009091909190915060008201518160000190805190602001906107959291906110c7565b5060208201518160010190816107ab9190611b99565b505050505050565b60006060600060038451036107cb57600190506107e8565b6002600385516107db9190611d17565b6107e5919061185e565b90505b60008167ffffffffffffffff8111156108045761080361124c565b5b60405190808252806020026020018201604052801561083757816020015b60608152602001906001900390816108225790505b5090506000805b8651811015610a885760008054906101000a900473ffffffffffffffffffffffffffffffffffffffff1673ffffffffffffffffffffffffffffffffffffffff1663b5ab3fbb8989848151811061089757610896611765565b5b60200260200101516040518363ffffffff1660e01b81526004016108bc929190611d90565b600060405180830381865afa1580156108d9573d6000803e3d6000fd5b505050506040513d6000823e3d601f19601f820116820180604052508101906109029190611ee5565b9450600061095d88600184610917919061185e565b8151811061092857610927611765565b5b6020026020010151878a60028661093f919061185e565b815181106109505761094f611765565b5b6020026020010151610a9e565b90508061099f576040518060400160405280600581526020017f66616c73650000000000000000000000000000000000000000000000000000008152506109d6565b6040518060400160405280600481526020017f74727565000000000000000000000000000000000000000000000000000000008152505b8484806109e2906118b4565b9550815181106109f5576109f4611765565b5b60200260200101819052506000600383610a0f919061185e565b8951610a1b9190611f2e565b1115610a735787600383610a2f919061185e565b81518110610a4057610a3f611765565b5b6020026020010151848480610a54906118b4565b955081518110610a6757610a66611765565b5b60200260200101819052505b50600481610a81919061185e565b905061083e565b50610a9282610cc9565b94505050505092915050565b6000806000905060005b8451811015610cbd57610af0846040518060400160405280600181526020017f3d00000000000000000000000000000000000000000000000000000000000000815250610567565b8015610b1c5750610b1b858281518110610b0d57610b0c611765565b5b602002602001015187610567565b5b15610b2a5760019150610cbd565b610b69846040518060400160405280600281526020017f213d000000000000000000000000000000000000000000000000000000000000815250610567565b8015610b965750610b94858281518110610b8657610b85611765565b5b602002602001015187610567565b155b15610ba45760019150610cbd565b610be3846040518060400160405280600181526020017f3c00000000000000000000000000000000000000000000000000000000000000815250610567565b8015610c195750610bf38661014c565b610c16868381518110610c0957610c08611765565b5b602002602001015161014c565b11155b15610c275760019150610cbd565b610c66846040518060400160405280600181526020017f3e00000000000000000000000000000000000000000000000000000000000000815250610567565b8015610c9c5750610c768661014c565b610c99868381518110610c8c57610c8b611765565b5b602002602001015161014c565b10155b15610caa5760019150610cbd565b8080610cb5906118b4565b915050610aa8565b50809150509392505050565b600080610d2683600081518110610ce357610ce2611765565b5b60200260200101516040518060400160405280600481526020017f7472756500000000000000000000000000000000000000000000000000000000815250610567565b610d31576000610d34565b60015b90506001835103610d485780915050610f73565b610d8983600181518110610d5f57610d5e611765565b5b60200260200101518285600281518110610d7c57610d7b611765565b5b6020026020010151610f78565b90506000600390505b8351811015610f6d57610df4848281518110610db157610db0611765565b5b60200260200101516040518060400160405280600281526020017f6f72000000000000000000000000000000000000000000000000000000000000815250610567565b15610e7b578180610e665750610e6584600183610e11919061185e565b81518110610e2257610e21611765565b5b60200260200101516040518060400160405280600481526020017f7472756500000000000000000000000000000000000000000000000000000000815250610567565b5b610e71576000610e74565b60015b9150610f59565b610ed4848281518110610e9157610e90611765565b5b60200260200101516040518060400160405280600381526020017f616e640000000000000000000000000000000000000000000000000000000000815250610567565b15610f5857818015610f475750610f4684600183610ef2919061185e565b81518110610f0357610f02611765565b5b60200260200101516040518060400160405280600481526020017f7472756500000000000000000000000000000000000000000000000000000000815250610567565b5b610f52576000610f55565b60015b91505b5b600281610f66919061185e565b9050610d92565b50809150505b919050565b6000610fb9846040518060400160405280600281526020017f6f72000000000000000000000000000000000000000000000000000000000000815250610567565b1561101a5782806110055750611004826040518060400160405280600481526020017f7472756500000000000000000000000000000000000000000000000000000000815250610567565b5b611010576000611013565b60015b90506110c0565b611059846040518060400160405280600381526020017f616e640000000000000000000000000000000000000000000000000000000000815250610567565b156110bb578280156110a657506110a5826040518060400160405280600481526020017f7472756500000000000000000000000000000000000000000000000000000000815250610567565b5b6110b15760006110b4565b60015b90506110c0565b600090505b9392505050565b82805482825590600052602060002090810192821561110f579160200282015b8281111561110e5782518290816110fe9190611b99565b50916020019190600101906110e7565b5b50905061111c9190611144565b5090565b50805460008255600202906000526020600020908101906111419190611168565b50565b5b80821115611164576000818161115b919061119f565b50600101611145565b5090565b5b8082111561119b576000808201600061118291906111df565b600182016000611192919061119f565b50600201611169565b5090565b5080546111ab906119bc565b6000825580601f106111bd57506111dc565b601f0160209004906000526020600020908101906111db9190611200565b5b50565b50805460008255906000526020600020908101906111fd9190611144565b50565b5b80821115611219576000816000905550600101611201565b5090565b6000604051905090565b600080fd5b600080fd5b600080fd5b600080fd5b6000601f19601f8301169050919050565b7f4e487b7100000000000000000000000000000000000000000000000000000000600052604160045260246000fd5b6112848261123b565b810181811067ffffffffffffffff821117156112a3576112a261124c565b5b80604052505050565b60006112b661121d565b90506112c2828261127b565b919050565b600067ffffffffffffffff8211156112e2576112e161124c565b5b6112eb8261123b565b9050602081019050919050565b82818337600083830152505050565b600061131a611315846112c7565b6112ac565b90508281526020810184848401111561133657611335611236565b5b6113418482856112f8565b509392505050565b600082601f83011261135e5761135d611231565b5b813561136e848260208601611307565b91505092915050565b60006020828403121561138d5761138c611227565b5b600082013567ffffffffffffffff8111156113ab576113aa61122c565b5b6113b784828501611349565b91505092915050565b6000819050919050565b6113d3816113c0565b82525050565b60006020820190506113ee60008301846113ca565b92915050565b600073ffffffffffffffffffffffffffffffffffffffff82169050919050565b600061141f826113f4565b9050919050565b61142f81611414565b811461143a57600080fd5b50565b60008135905061144c81611426565b92915050565b600067ffffffffffffffff82111561146d5761146c61124c565b5b602082029050602081019050919050565b600080fd5b600061149661149184611452565b6112ac565b905080838252602082019050602084028301858111156114b9576114b861147e565b5b835b8181101561150057803567ffffffffffffffff8111156114de576114dd611231565b5b8086016114eb8982611349565b855260208501945050506020810190506114bb565b5050509392505050565b600082601f83011261151f5761151e611231565b5b813561152f848260208601611483565b91505092915050565b60008060006060848603121561155157611550611227565b5b600061155f8682870161143d565b935050602084013567ffffffffffffffff8111156115805761157f61122c565b5b61158c8682870161150a565b925050604084013567ffffffffffffffff8111156115ad576115ac61122c565b5b6115b986828701611349565b9150509250925092565b6000806000606084860312156115dc576115db611227565b5b60006115ea8682870161143d565b93505060206115fb8682870161143d565b925050604084013567ffffffffffffffff81111561161c5761161b61122c565b5b61162886828701611349565b9150509250925092565b60008115159050919050565b61164781611632565b82525050565b6000604082019050611662600083018561163e565b61166f60208301846113ca565b9392505050565b6000806040838503121561168d5761168c611227565b5b600083013567ffffffffffffffff8111156116ab576116aa61122c565b5b6116b785828601611349565b925050602083013567ffffffffffffffff8111156116d8576116d761122c565b5b6116e485828601611349565b9150509250929050565b6000602082019050611703600083018461163e565b92915050565b600080604083850312156117205761171f611227565b5b600061172e8582860161143d565b925050602083013567ffffffffffffffff81111561174f5761174e61122c565b5b61175b85828601611349565b9150509250929050565b7f4e487b7100000000000000000000000000000000000000000000000000000000600052603260045260246000fd5b600060ff82169050919050565b7f4e487b7100000000000000000000000000000000000000000000000000000000600052601160045260246000fd5b60006117db82611794565b91506117e683611794565b9250828210156117f9576117f86117a1565b5b828203905092915050565b600061180f826113c0565b915061181a836113c0565b9250817fffffffffffffffffffffffffffffffffffffffffffffffffffffffffffffffff0483118215151615611853576118526117a1565b5b828202905092915050565b6000611869826113c0565b9150611874836113c0565b9250827fffffffffffffffffffffffffffffffffffffffffffffffffffffffffffffffff038211156118a9576118a86117a1565b5b828201905092915050565b60006118bf826113c0565b91507fffffffffffffffffffffffffffffffffffffffffffffffffffffffffffffffff82036118f1576118f06117a1565b5b600182019050919050565b600081519050919050565b600081905092915050565b60005b83811015611930578082015181840152602081019050611915565b8381111561193f576000848401525b50505050565b6000611950826118fc565b61195a8185611907565b935061196a818560208601611912565b80840191505092915050565b60006119828284611945565b915081905092915050565b7f4e487b7100000000000000000000000000000000000000000000000000000000600052602260045260246000fd5b600060028204905060018216806119d457607f821691505b6020821081036119e7576119e661198d565b5b50919050565b60008190508160005260206000209050919050565b60006020601f8301049050919050565b600082821b905092915050565b600060088302611a4f7fffffffffffffffffffffffffffffffffffffffffffffffffffffffffffffffff82611a12565b611a598683611a12565b95508019841693508086168417925050509392505050565b6000819050919050565b6000611a96611a91611a8c846113c0565b611a71565b6113c0565b9050919050565b6000819050919050565b611ab083611a7b565b611ac4611abc82611a9d565b848454611a1f565b825550505050565b600090565b611ad9611acc565b611ae4818484611aa7565b505050565b5b81811015611b0857611afd600082611ad1565b600181019050611aea565b5050565b601f821115611b4d57611b1e816119ed565b611b2784611a02565b81016020851015611b36578190505b611b4a611b4285611a02565b830182611ae9565b50505b505050565b600082821c905092915050565b6000611b7060001984600802611b52565b1980831691505092915050565b6000611b898383611b5f565b9150826002028217905092915050565b611ba2826118fc565b67ffffffffffffffff811115611bbb57611bba61124c565b5b611bc582546119bc565b611bd0828285611b0c565b600060209050601f831160018114611c035760008415611bf1578287015190505b611bfb8582611b7d565b865550611c63565b601f198416611c11866119ed565b60005b82811015611c3957848901518255600182019150602085019450602081019050611c14565b86831015611c565784890151611c52601f891682611b5f565b8355505b6001600288020188555050505b505050505050565b600082825260208201905092915050565b7f4e6f74446566696e650000000000000000000000000000000000000000000000600082015250565b6000611cb2600983611c6b565b9150611cbd82611c7c565b602082019050919050565b60006020820190508181036000830152611ce181611ca5565b9050919050565b7f4e487b7100000000000000000000000000000000000000000000000000000000600052601260045260246000fd5b6000611d22826113c0565b9150611d2d836113c0565b925082611d3d57611d3c611ce8565b5b828204905092915050565b611d5181611414565b82525050565b6000611d62826118fc565b611d6c8185611c6b565b9350611d7c818560208601611912565b611d858161123b565b840191505092915050565b6000604082019050611da56000830185611d48565b8181036020830152611db78184611d57565b90509392505050565b6000611dd3611dce846112c7565b6112ac565b905082815260208101848484011115611def57611dee611236565b5b611dfa848285611912565b509392505050565b600082601f830112611e1757611e16611231565b5b8151611e27848260208601611dc0565b91505092915050565b6000611e43611e3e84611452565b6112ac565b90508083825260208201905060208402830185811115611e6657611e6561147e565b5b835b81811015611ead57805167ffffffffffffffff811115611e8b57611e8a611231565b5b808601611e988982611e02565b85526020850194505050602081019050611e68565b5050509392505050565b600082601f830112611ecc57611ecb611231565b5b8151611edc848260208601611e30565b91505092915050565b600060208284031215611efb57611efa611227565b5b600082015167ffffffffffffffff811115611f1957611f1861122c565b5b611f2584828501611eb7565b91505092915050565b6000611f39826113c0565b9150611f44836113c0565b925082821015611f5757611f566117a1565b5b82820390509291505056fea26469706673582212202a79a554849a1db3c5da19066dbcc4f07b3c90912d4da1f4ee0d94d04ade983d64736f6c634300080f0033",
  "immutableReferences": {},
  "source": "// SPDX-License-Identifier:MIT\r\npragma solidity >=0.4.22 <0.9.0;\r\n \r\n\r\ncontract APMC { \r\n\r\n     //variables\r\n    Callee instance;\r\n    mapping(address => mapping(string => PolicyItem[])) internal policies;\r\n    \r\n     constructor( address _SAMC)\r\n     {\r\n          instance=Callee(_SAMC);         \r\n     }\r\n\r\n   \r\n\r\n     //Struct\r\n    struct PolicyItem {\r\n        string[] attr; //Subject attributes\r\n        string action; //Operation\r\n    }\r\n\r\n    //add policy for Subject\r\n    function addPolicy(        \r\n        address _resource,     //Subject Address\r\n        string[] memory _attrs,//Subject Attributes\r\n        string memory _action  //Operation\r\n    ) public {         \r\n        policies[_resource][_action].push(PolicyItem(_attrs, _action));        \r\n    } \r\n\r\n    //update policy for Subject\r\n    function updatePolicy(        \r\n        address _resource,     //Subject Address\r\n        string[] memory _attrs,//Subject Attributes\r\n        string memory _action  //Operation\r\n    ) public {         \r\n        policies[_resource][_action].push(PolicyItem(_attrs, _action));        \r\n    } \r\n\r\n     //delete policy for Subject\r\n    function deletePolicy(        \r\n        address _resource,     //Subject Address       \r\n        string memory _action  //Operation\r\n    ) public {         \r\n       delete policies[_resource][_action];        \r\n    } \r\n\r\n    //check Access control request\r\n    function checkPolicy(\r\n        address _from,\r\n        address _resource,\r\n        string memory _action\r\n    ) public view returns (bool, uint256) {\r\n        uint256 firstTime = block.timestamp;\r\n        // check policies\r\n        if (policies[_resource][_action].length == 0) {\r\n            revert(\"NotDefine\");\r\n        }\r\n\r\n        for (uint256 i = 0; i < policies[_resource][_action].length; i++) {\r\n            bool isMatchPolicy = findAttr(\r\n                _from,\r\n                policies[_resource][_action][i].attr\r\n            );\r\n            \r\n            if (isMatchPolicy) return (true, firstTime);\r\n        }\r\n\r\n        return (false, firstTime);\r\n    }\r\n\r\n    function findAttr(address _resource, string[] memory _policyAttr)\r\n        private\r\n        view\r\n        returns (bool)\r\n    {\r\n        string[] memory attrValue;\r\n        uint256 expersionLength;\r\n\r\n        if (_policyAttr.length == 3) {\r\n            expersionLength = 1;\r\n        } else {\r\n            expersionLength = (_policyAttr.length / 3) + 2;\r\n        }\r\n        string[] memory expersion = new string[](expersionLength);\r\n        uint256 expersionCounter = 0;\r\n\r\n        for (uint256 i = 0; i < _policyAttr.length; i += 4) {\r\n            attrValue = instance.expand(_resource, _policyAttr[i]);\r\n            bool result = matchAttr(\r\n                _policyAttr[i + 1],\r\n                attrValue,\r\n                _policyAttr[i + 2]\r\n            );\r\n\r\n            expersion[expersionCounter++] = result ? \"true\" : \"false\";\r\n\r\n            if (_policyAttr.length - (i + 3) > 0) {\r\n                expersion[expersionCounter++] = _policyAttr[i + 3];\r\n            }\r\n        }\r\n\r\n        return parseExperssion(expersion);\r\n    }\r\n\r\n    function matchAttr(\r\n        string memory _policyAttrVal,\r\n        string[] memory _attrValue,\r\n        string memory _operator\r\n    ) private pure returns (bool) {\r\n        bool isExistsPolicy = false;\r\n\r\n        for (uint256 i = 0; i < _attrValue.length; i++) {\r\n            if (\r\n                stringCompare(_operator, \"=\") &&\r\n                (stringCompare(_attrValue[i], _policyAttrVal))\r\n            ) {\r\n                isExistsPolicy = true;\r\n                break;\r\n            } else if (\r\n                stringCompare(_operator, \"!=\") &&\r\n                (!stringCompare(_attrValue[i], _policyAttrVal))\r\n            ) {\r\n                isExistsPolicy = true;\r\n                break;\r\n            } else if (\r\n                stringCompare(_operator, \"<\") &&\r\n                (stringToUint(_attrValue[i]) <= stringToUint(_policyAttrVal))\r\n            ) {\r\n                isExistsPolicy = true;\r\n                break;\r\n            } else if (\r\n                stringCompare(_operator, \">\") &&\r\n                (stringToUint(_attrValue[i]) >= stringToUint(_policyAttrVal))\r\n            ) {\r\n                isExistsPolicy = true;\r\n                break;\r\n            }\r\n        }\r\n\r\n        return isExistsPolicy;\r\n    }\r\n\r\n    function parseExperssion(string[] memory _expersion)\r\n        private\r\n        pure\r\n        returns (bool)\r\n    {\r\n        bool flag = stringCompare(_expersion[0], \"true\") ? true : false;\r\n\r\n        if (_expersion.length == 1) return flag;\r\n\r\n        flag = compareExperssion(_expersion[1], flag, _expersion[2]);\r\n\r\n        for (uint256 i = 3; i < _expersion.length; i += 2) {\r\n            if (stringCompare(_expersion[i], \"or\")) {\r\n                flag = flag || stringCompare(_expersion[i + 1], \"true\")\r\n                    ? true\r\n                    : false;\r\n            } else if (stringCompare(_expersion[i], \"and\")) {\r\n                flag = flag && stringCompare(_expersion[i + 1], \"true\")\r\n                    ? true\r\n                    : false;\r\n            }\r\n        }\r\n\r\n        return flag;\r\n    }\r\n\r\n    function compareExperssion(\r\n        string memory opt,\r\n        bool val1,\r\n        string memory val2\r\n    ) private pure returns (bool) {\r\n        if (stringCompare(opt, \"or\")) {\r\n            return val1 || stringCompare(val2, \"true\") ? true : false;\r\n        } else if (stringCompare(opt, \"and\")) {\r\n            return val1 && stringCompare(val2, \"true\") ? true : false;\r\n        }\r\n\r\n        return false;\r\n    }\r\n\r\n    function stringCompare(string memory a, string memory b)\r\n        public\r\n        pure\r\n        returns (bool)\r\n    {\r\n        bytes memory _a = bytes(a);\r\n        bytes memory _b = bytes(b);\r\n        if (_a.length != _b.length) {\r\n            return false;\r\n        } else {\r\n            if (_a.length == 1) {\r\n                return _a[0] == _b[0];\r\n            } else {\r\n                return\r\n                    keccak256(abi.encodePacked(a)) ==\r\n                    keccak256(abi.encodePacked(b));\r\n            }\r\n        }\r\n    }\r\n\r\n     function stringToUint(string memory s)\r\n        public\r\n        pure\r\n        returns (uint256 result)\r\n    {\r\n        bytes memory b = bytes(s);\r\n        uint256 i;\r\n        result = 0;\r\n        for (i = 0; i < b.length; i++) {\r\n            uint8 c = uint8(b[i]);\r\n            if (c >= 48 && c <= 57) {\r\n                result = result * 10 + (c - 48);\r\n            }\r\n        }\r\n    }\r\n\r\n}\r\n\r\ninterface Callee\r\n{\r\n    function expand(address _address, string memory _attrName)\r\n        external\r\n        view        \r\n        returns (string[] memory _attrValue);\r\n}",
  "sourcePath": "C:\\final\\SubjectShard\\contracts\\APMC.sol",
  "compiler": {
    "name": "solc",
    "version": "0.8.15+commit.e14f2714.Emscripten.clang"
  },
  "schemaVersion": "3.4.8",
  "updatedAt": "2023-01-11T17:03:04.207Z",
  "networkType": "ethereum",
  "devdoc": {
    "kind": "dev",
    "methods": {},
    "version": 1
  },
  "userdoc": {
    "kind": "user",
    "methods": {},
    "version": 1
  }
}