{
  "contractName": "ObjectContract",
  "abi": [
    {
      "inputs": [
        {
          "internalType": "address",
          "name": "_address",
          "type": "address"
        }
      ],
      "name": "register",
      "outputs": [],
      "stateMutability": "nonpayable",
      "type": "function"
    },
    {
      "inputs": [
        {
          "internalType": "address",
          "name": "_resource",
          "type": "address"
        },
        {
          "internalType": "string[]",
          "name": "_attrs",
          "type": "string[]"
        },
        {
          "internalType": "string",
          "name": "_action",
          "type": "string"
        }
      ],
      "name": "addPolicy",
      "outputs": [],
      "stateMutability": "nonpayable",
      "type": "function"
    },
    {
      "inputs": [
        {
          "internalType": "address",
          "name": "_address",
          "type": "address"
        },
        {
          "internalType": "string",
          "name": "_attrName",
          "type": "string"
        },
        {
          "internalType": "string",
          "name": "_attrValue",
          "type": "string"
        },
        {
          "internalType": "string[]",
          "name": "_parent",
          "type": "string[]"
        }
      ],
      "name": "addAttribute",
      "outputs": [],
      "stateMutability": "nonpayable",
      "type": "function"
    },
    {
      "inputs": [
        {
          "internalType": "address",
          "name": "_address",
          "type": "address"
        },
        {
          "internalType": "string",
          "name": "_attrName",
          "type": "string"
        }
      ],
      "name": "getAttribute",
      "outputs": [
        {
          "internalType": "string[]",
          "name": "_attrValue",
          "type": "string[]"
        }
      ],
      "stateMutability": "view",
      "type": "function"
    },
    {
      "inputs": [
        {
          "internalType": "address",
          "name": "_from",
          "type": "address"
        },
        {
          "internalType": "address",
          "name": "_resource",
          "type": "address"
        },
        {
          "internalType": "string",
          "name": "_action",
          "type": "string"
        }
      ],
      "name": "accessControl",
      "outputs": [
        {
          "internalType": "bool",
          "name": "",
          "type": "bool"
        },
        {
          "internalType": "uint256",
          "name": "",
          "type": "uint256"
        }
      ],
      "stateMutability": "view",
      "type": "function"
    },
    {
      "inputs": [
        {
          "internalType": "string",
          "name": "a",
          "type": "string"
        },
        {
          "internalType": "string",
          "name": "b",
          "type": "string"
        }
      ],
      "name": "stringCompare",
      "outputs": [
        {
          "internalType": "bool",
          "name": "",
          "type": "bool"
        }
      ],
      "stateMutability": "pure",
      "type": "function"
    },
    {
      "inputs": [
        {
          "internalType": "string",
          "name": "s",
          "type": "string"
        }
      ],
      "name": "stringToUint",
      "outputs": [
        {
          "internalType": "uint256",
          "name": "result",
          "type": "uint256"
        }
      ],
      "stateMutability": "pure",
      "type": "function"
    }
  ],
  "bytecode": "0x608060405234801561001057600080fd5b50612513806100206000396000f3fe608060405234801561001057600080fd5b506004361061007d5760003560e01c806360353db91161005b57806360353db9146100fe578063aeb109491461012e578063b5facd901461015f578063f99a258d1461017b5761007d565b80631bd95155146100825780634420e486146100b25780635449e2fc146100ce575b600080fd5b61009c60048036038101906100979190611856565b610197565b6040516100a991906118b8565b60405180910390f35b6100cc60048036038101906100c79190611931565b610237565b005b6100e860048036038101906100e3919061195e565b610314565b6040516100f59190611b04565b60405180910390f35b61011860048036038101906101139190611b26565b61072a565b6040516101259190611bb9565b60405180910390f35b61014860048036038101906101439190611bd4565b610838565b604051610156929190611c43565b60405180910390f35b61017960048036038101906101749190611d52565b610ae0565b005b61019560048036038101906101909190611e0d565b610cd2565b005b6000808290506000809250600090505b81518110156102305760008282815181106101c5576101c4611e98565b5b602001015160f81c60f81b60f81c905060308160ff16101580156101ed575060398160ff1611155b1561021c576030816101ff9190611f03565b60ff16600a8561020f9190611f37565b6102199190611f91565b93505b50808061022890611fe7565b9150506101a7565b5050919050565b336000808373ffffffffffffffffffffffffffffffffffffffff1673ffffffffffffffffffffffffffffffffffffffff16815260200190815260200160002060000160016101000a81548173ffffffffffffffffffffffffffffffffffffffff021916908373ffffffffffffffffffffffffffffffffffffffff16021790555060016000808373ffffffffffffffffffffffffffffffffffffffff1673ffffffffffffffffffffffffffffffffffffffff16815260200190815260200160002060000160006101000a81548160ff02191690831515021790555050565b6060826000808273ffffffffffffffffffffffffffffffffffffffff1673ffffffffffffffffffffffffffffffffffffffff16815260200190815260200160002060000160009054906101000a900460ff166103a5576040517f08c379a000000000000000000000000000000000000000000000000000000000815260040161039c9061208c565b60405180910390fd5b600060016000808773ffffffffffffffffffffffffffffffffffffffff1673ffffffffffffffffffffffffffffffffffffffff168152602001908152602001600020600101856040516103f891906120e8565b9081526020016040518091039020600201805490506104179190611f91565b67ffffffffffffffff8111156104305761042f61172b565b5b60405190808252806020026020018201604052801561046357816020015b606081526020019060019003908161044e5790505b5090506000808673ffffffffffffffffffffffffffffffffffffffff1673ffffffffffffffffffffffffffffffffffffffff168152602001908152602001600020600101846040516104b591906120e8565b908152602001604051809103902060010180546104d19061212e565b80601f01602080910402602001604051908101604052809291908181526020018280546104fd9061212e565b801561054a5780601f1061051f5761010080835404028352916020019161054a565b820191906000526020600020905b81548152906001019060200180831161052d57829003601f168201915b50505050508160008151811061056357610562611e98565b5b602002602001018190525060005b6000808773ffffffffffffffffffffffffffffffffffffffff1673ffffffffffffffffffffffffffffffffffffffff168152602001908152602001600020600101856040516105c091906120e8565b90815260200160405180910390206002018054905081101561071e576000808773ffffffffffffffffffffffffffffffffffffffff1673ffffffffffffffffffffffffffffffffffffffff1681526020019081526020016000206001018560405161062b91906120e8565b9081526020016040518091039020600201818154811061064e5761064d611e98565b5b9060005260206000200180546106639061212e565b80601f016020809104026020016040519081016040528092919081815260200182805461068f9061212e565b80156106dc5780601f106106b1576101008083540402835291602001916106dc565b820191906000526020600020905b8154815290600101906020018083116106bf57829003601f168201915b5050505050826001836106ef9190611f91565b81518110610700576106ff611e98565b5b6020026020010181905250808061071690611fe7565b915050610571565b50809250505092915050565b6000808390506000839050805182511461074957600092505050610832565b60018251036107de578060008151811061076657610765611e98565b5b602001015160f81c60f81b7effffffffffffffffffffffffffffffffffffffffffffffffffffffffffffff1916826000815181106107a7576107a6611e98565b5b602001015160f81c60f81b7effffffffffffffffffffffffffffffffffffffffffffffffffffffffffffff19161492505050610832565b836040516020016107ef91906120e8565b604051602081830303815290604052805190602001208560405160200161081691906120e8565b6040516020818303038152906040528051906020012014925050505b92915050565b60008060004290506000600160008773ffffffffffffffffffffffffffffffffffffffff1673ffffffffffffffffffffffffffffffffffffffff1681526020019081526020016000208560405161088f91906120e8565b908152602001604051809103902080549050036108e1576040517f08c379a00000000000000000000000000000000000000000000000000000000081526004016108d8906121ab565b60405180910390fd5b60005b600160008773ffffffffffffffffffffffffffffffffffffffff1673ffffffffffffffffffffffffffffffffffffffff1681526020019081526020016000208560405161093191906120e8565b908152602001604051809103902080549050811015610ace576000610aa388600160008a73ffffffffffffffffffffffffffffffffffffffff1673ffffffffffffffffffffffffffffffffffffffff1681526020019081526020016000208860405161099d91906120e8565b908152602001604051809103902084815481106109bd576109bc611e98565b5b9060005260206000209060020201600001805480602002602001604051908101604052809291908181526020016000905b82821015610a9a578382906000526020600020018054610a0d9061212e565b80601f0160208091040260200160405190810160405280929190818152602001828054610a399061212e565b8015610a865780601f10610a5b57610100808354040283529160200191610a86565b820191906000526020600020905b815481529060010190602001808311610a6957829003601f168201915b5050505050815260200190600101906109ee565b50505050610da5565b90508015610aba5760018394509450505050610ad8565b508080610ac690611fe7565b9150506108e4565b5060008192509250505b935093915050565b836000808273ffffffffffffffffffffffffffffffffffffffff1673ffffffffffffffffffffffffffffffffffffffff16815260200190815260200160002060000160009054906101000a900460ff16610b6f576040517f08c379a0000000000000000000000000000000000000000000000000000000008152600401610b669061208c565b60405180910390fd5b826000808773ffffffffffffffffffffffffffffffffffffffff1673ffffffffffffffffffffffffffffffffffffffff16815260200190815260200160002060010185604051610bbf91906120e8565b90815260200160405180910390206001019081610bdc9190612377565b50816000808773ffffffffffffffffffffffffffffffffffffffff1673ffffffffffffffffffffffffffffffffffffffff16815260200190815260200160002060010185604051610c2d91906120e8565b90815260200160405180910390206002019080519060200190610c51929190611622565b5060016000808773ffffffffffffffffffffffffffffffffffffffff1673ffffffffffffffffffffffffffffffffffffffff16815260200190815260200160002060010185604051610ca391906120e8565b908152602001604051809103902060000160006101000a81548160ff0219169083151502179055505050505050565b600160008473ffffffffffffffffffffffffffffffffffffffff1673ffffffffffffffffffffffffffffffffffffffff16815260200190815260200160002081604051610d1f91906120e8565b908152602001604051809103902060405180604001604052808481526020018381525090806001815401808255809150506001900390600052602060002090600202016000909190919091506000820151816000019080519060200190610d87929190611622565b506020820151816001019081610d9d9190612377565b505050505050565b6000606060006003845103610dbd5760019050610dda565b600260038551610dcd9190612478565b610dd79190611f91565b90505b60008167ffffffffffffffff811115610df657610df561172b565b5b604051908082528060200260200182016040528015610e2957816020015b6060815260200190600190039081610e145790505b5090506000805b8651811015610fe357610e5d88888381518110610e5057610e4f611e98565b5b6020026020010151610314565b94506000610eb888600184610e729190611f91565b81518110610e8357610e82611e98565b5b6020026020010151878a600286610e9a9190611f91565b81518110610eab57610eaa611e98565b5b6020026020010151610ff9565b905080610efa576040518060400160405280600581526020017f66616c7365000000000000000000000000000000000000000000000000000000815250610f31565b6040518060400160405280600481526020017f74727565000000000000000000000000000000000000000000000000000000008152505b848480610f3d90611fe7565b955081518110610f5057610f4f611e98565b5b60200260200101819052506000600383610f6a9190611f91565b8951610f7691906124a9565b1115610fce5787600383610f8a9190611f91565b81518110610f9b57610f9a611e98565b5b6020026020010151848480610faf90611fe7565b955081518110610fc257610fc1611e98565b5b60200260200101819052505b50600481610fdc9190611f91565b9050610e30565b50610fed82611224565b94505050505092915050565b6000806000905060005b84518110156112185761104b846040518060400160405280600181526020017f3d0000000000000000000000000000000000000000000000000000000000000081525061072a565b8015611077575061107685828151811061106857611067611e98565b5b60200260200101518761072a565b5b156110855760019150611218565b6110c4846040518060400160405280600281526020017f213d00000000000000000000000000000000000000000000000000000000000081525061072a565b80156110f157506110ef8582815181106110e1576110e0611e98565b5b60200260200101518761072a565b155b156110ff5760019150611218565b61113e846040518060400160405280600181526020017f3c0000000000000000000000000000000000000000000000000000000000000081525061072a565b8015611174575061114e86610197565b61117186838151811061116457611163611e98565b5b6020026020010151610197565b11155b156111825760019150611218565b6111c1846040518060400160405280600181526020017f3e0000000000000000000000000000000000000000000000000000000000000081525061072a565b80156111f757506111d186610197565b6111f48683815181106111e7576111e6611e98565b5b6020026020010151610197565b10155b156112055760019150611218565b808061121090611fe7565b915050611003565b50809150509392505050565b6000806112818360008151811061123e5761123d611e98565b5b60200260200101516040518060400160405280600481526020017f747275650000000000000000000000000000000000000000000000000000000081525061072a565b61128c57600061128f565b60015b905060018351036112a357809150506114ce565b6112e4836001815181106112ba576112b9611e98565b5b602002602001015182856002815181106112d7576112d6611e98565b5b60200260200101516114d3565b90506000600390505b83518110156114c85761134f84828151811061130c5761130b611e98565b5b60200260200101516040518060400160405280600281526020017f6f7200000000000000000000000000000000000000000000000000000000000081525061072a565b156113d65781806113c157506113c08460018361136c9190611f91565b8151811061137d5761137c611e98565b5b60200260200101516040518060400160405280600481526020017f747275650000000000000000000000000000000000000000000000000000000081525061072a565b5b6113cc5760006113cf565b60015b91506114b4565b61142f8482815181106113ec576113eb611e98565b5b60200260200101516040518060400160405280600381526020017f616e64000000000000000000000000000000000000000000000000000000000081525061072a565b156114b3578180156114a257506114a18460018361144d9190611f91565b8151811061145e5761145d611e98565b5b60200260200101516040518060400160405280600481526020017f747275650000000000000000000000000000000000000000000000000000000081525061072a565b5b6114ad5760006114b0565b60015b91505b5b6002816114c19190611f91565b90506112ed565b50809150505b919050565b6000611514846040518060400160405280600281526020017f6f7200000000000000000000000000000000000000000000000000000000000081525061072a565b15611575578280611560575061155f826040518060400160405280600481526020017f747275650000000000000000000000000000000000000000000000000000000081525061072a565b5b61156b57600061156e565b60015b905061161b565b6115b4846040518060400160405280600381526020017f616e64000000000000000000000000000000000000000000000000000000000081525061072a565b15611616578280156116015750611600826040518060400160405280600481526020017f747275650000000000000000000000000000000000000000000000000000000081525061072a565b5b61160c57600061160f565b60015b905061161b565b600090505b9392505050565b82805482825590600052602060002090810192821561166a579160200282015b828111156116695782518290816116599190612377565b5091602001919060010190611642565b5b509050611677919061167b565b5090565b5b8082111561169b5760008181611692919061169f565b5060010161167c565b5090565b5080546116ab9061212e565b6000825580601f106116bd57506116dc565b601f0160209004906000526020600020908101906116db91906116df565b5b50565b5b808211156116f85760008160009055506001016116e0565b5090565b6000604051905090565b600080fd5b600080fd5b600080fd5b600080fd5b6000601f19601f8301169050919050565b7f4e487b7100000000000000000000000000000000000000000000000000000000600052604160045260246000fd5b6117638261171a565b810181811067ffffffffffffffff821117156117825761178161172b565b5b80604052505050565b60006117956116fc565b90506117a1828261175a565b919050565b600067ffffffffffffffff8211156117c1576117c061172b565b5b6117ca8261171a565b9050602081019050919050565b82818337600083830152505050565b60006117f96117f4846117a6565b61178b565b90508281526020810184848401111561181557611814611715565b5b6118208482856117d7565b509392505050565b600082601f83011261183d5761183c611710565b5b813561184d8482602086016117e6565b91505092915050565b60006020828403121561186c5761186b611706565b5b600082013567ffffffffffffffff81111561188a5761188961170b565b5b61189684828501611828565b91505092915050565b6000819050919050565b6118b28161189f565b82525050565b60006020820190506118cd60008301846118a9565b92915050565b600073ffffffffffffffffffffffffffffffffffffffff82169050919050565b60006118fe826118d3565b9050919050565b61190e816118f3565b811461191957600080fd5b50565b60008135905061192b81611905565b92915050565b60006020828403121561194757611946611706565b5b60006119558482850161191c565b91505092915050565b6000806040838503121561197557611974611706565b5b60006119838582860161191c565b925050602083013567ffffffffffffffff8111156119a4576119a361170b565b5b6119b085828601611828565b9150509250929050565b600081519050919050565b600082825260208201905092915050565b6000819050602082019050919050565b600081519050919050565b600082825260208201905092915050565b60005b83811015611a20578082015181840152602081019050611a05565b83811115611a2f576000848401525b50505050565b6000611a40826119e6565b611a4a81856119f1565b9350611a5a818560208601611a02565b611a638161171a565b840191505092915050565b6000611a7a8383611a35565b905092915050565b6000602082019050919050565b6000611a9a826119ba565b611aa481856119c5565b935083602082028501611ab6856119d6565b8060005b85811015611af25784840389528151611ad38582611a6e565b9450611ade83611a82565b925060208a01995050600181019050611aba565b50829750879550505050505092915050565b60006020820190508181036000830152611b1e8184611a8f565b905092915050565b60008060408385031215611b3d57611b3c611706565b5b600083013567ffffffffffffffff811115611b5b57611b5a61170b565b5b611b6785828601611828565b925050602083013567ffffffffffffffff811115611b8857611b8761170b565b5b611b9485828601611828565b9150509250929050565b60008115159050919050565b611bb381611b9e565b82525050565b6000602082019050611bce6000830184611baa565b92915050565b600080600060608486031215611bed57611bec611706565b5b6000611bfb8682870161191c565b9350506020611c0c8682870161191c565b925050604084013567ffffffffffffffff811115611c2d57611c2c61170b565b5b611c3986828701611828565b9150509250925092565b6000604082019050611c586000830185611baa565b611c6560208301846118a9565b9392505050565b600067ffffffffffffffff821115611c8757611c8661172b565b5b602082029050602081019050919050565b600080fd5b6000611cb0611cab84611c6c565b61178b565b90508083825260208201905060208402830185811115611cd357611cd2611c98565b5b835b81811015611d1a57803567ffffffffffffffff811115611cf857611cf7611710565b5b808601611d058982611828565b85526020850194505050602081019050611cd5565b5050509392505050565b600082601f830112611d3957611d38611710565b5b8135611d49848260208601611c9d565b91505092915050565b60008060008060808587031215611d6c57611d6b611706565b5b6000611d7a8782880161191c565b945050602085013567ffffffffffffffff811115611d9b57611d9a61170b565b5b611da787828801611828565b935050604085013567ffffffffffffffff811115611dc857611dc761170b565b5b611dd487828801611828565b925050606085013567ffffffffffffffff811115611df557611df461170b565b5b611e0187828801611d24565b91505092959194509250565b600080600060608486031215611e2657611e25611706565b5b6000611e348682870161191c565b935050602084013567ffffffffffffffff811115611e5557611e5461170b565b5b611e6186828701611d24565b925050604084013567ffffffffffffffff811115611e8257611e8161170b565b5b611e8e86828701611828565b9150509250925092565b7f4e487b7100000000000000000000000000000000000000000000000000000000600052603260045260246000fd5b600060ff82169050919050565b7f4e487b7100000000000000000000000000000000000000000000000000000000600052601160045260246000fd5b6000611f0e82611ec7565b9150611f1983611ec7565b925082821015611f2c57611f2b611ed4565b5b828203905092915050565b6000611f428261189f565b9150611f4d8361189f565b9250817fffffffffffffffffffffffffffffffffffffffffffffffffffffffffffffffff0483118215151615611f8657611f85611ed4565b5b828202905092915050565b6000611f9c8261189f565b9150611fa78361189f565b9250827fffffffffffffffffffffffffffffffffffffffffffffffffffffffffffffffff03821115611fdc57611fdb611ed4565b5b828201905092915050565b6000611ff28261189f565b91507fffffffffffffffffffffffffffffffffffffffffffffffffffffffffffffffff820361202457612023611ed4565b5b600182019050919050565b600082825260208201905092915050565b7f41646472657373206e6f74207265676973746572656421000000000000000000600082015250565b600061207660178361202f565b915061208182612040565b602082019050919050565b600060208201905081810360008301526120a581612069565b9050919050565b600081905092915050565b60006120c2826119e6565b6120cc81856120ac565b93506120dc818560208601611a02565b80840191505092915050565b60006120f482846120b7565b915081905092915050565b7f4e487b7100000000000000000000000000000000000000000000000000000000600052602260045260246000fd5b6000600282049050600182168061214657607f821691505b602082108103612159576121586120ff565b5b50919050565b7f4e6f74446566696e650000000000000000000000000000000000000000000000600082015250565b600061219560098361202f565b91506121a08261215f565b602082019050919050565b600060208201905081810360008301526121c481612188565b9050919050565b60008190508160005260206000209050919050565b60006020601f8301049050919050565b600082821b905092915050565b60006008830261222d7fffffffffffffffffffffffffffffffffffffffffffffffffffffffffffffffff826121f0565b61223786836121f0565b95508019841693508086168417925050509392505050565b6000819050919050565b600061227461226f61226a8461189f565b61224f565b61189f565b9050919050565b6000819050919050565b61228e83612259565b6122a261229a8261227b565b8484546121fd565b825550505050565b600090565b6122b76122aa565b6122c2818484612285565b505050565b5b818110156122e6576122db6000826122af565b6001810190506122c8565b5050565b601f82111561232b576122fc816121cb565b612305846121e0565b81016020851015612314578190505b612328612320856121e0565b8301826122c7565b50505b505050565b600082821c905092915050565b600061234e60001984600802612330565b1980831691505092915050565b6000612367838361233d565b9150826002028217905092915050565b612380826119e6565b67ffffffffffffffff8111156123995761239861172b565b5b6123a3825461212e565b6123ae8282856122ea565b600060209050601f8311600181146123e157600084156123cf578287015190505b6123d9858261235b565b865550612441565b601f1984166123ef866121cb565b60005b82811015612417578489015182556001820191506020850194506020810190506123f2565b868310156124345784890151612430601f89168261233d565b8355505b6001600288020188555050505b505050505050565b7f4e487b7100000000000000000000000000000000000000000000000000000000600052601260045260246000fd5b60006124838261189f565b915061248e8361189f565b92508261249e5761249d612449565b5b828204905092915050565b60006124b48261189f565b91506124bf8361189f565b9250828210156124d2576124d1611ed4565b5b82820390509291505056fea26469706673582212208b1170c90b6dee64d9226d1ed993492bf046467a7978211d90328b3dfd3ed86f64736f6c634300080f0033",
  "immutableReferences": {},
  "source": "// SPDX-License-Identifier:MIT\r\npragma solidity >=0.4.22 <0.9.0;\r\n\r\ncontract ObjectContract {\r\n    \r\n    //variables\r\n    mapping(address => Resource) lookupTable;\r\n    mapping(address => mapping(string => PolicyItem[])) policies;\r\n\r\n    //Struct\r\n    struct PolicyItem {\r\n        string[] attr; //Object attributes\r\n        string action; //Operation\r\n    }\r\n\r\n    struct Resource {\r\n        bool isValued;\r\n        address manager;\r\n        mapping(string => AttrValue) attrbutes;\r\n    }\r\n\r\n    struct AttrValue {\r\n        bool isValued;        // check for duplicate \r\n        string value;         // attribute value\r\n        string[] parentAttr;  // parent attributes\r\n    }\r\n \r\n\r\n    //modifier\r\n    modifier isRegister(address _address) {\r\n        require(lookupTable[_address].isValued, \"Address not registered!\");\r\n        _;\r\n    }\r\n\r\n    modifier isAttributeExist(address _address, string memory _attrName) {\r\n        require(\r\n            !lookupTable[_address].attrbutes[_attrName].isValued,\r\n            \"add Attribute error: Attribute already exist!\"\r\n        );\r\n        _;\r\n    }\r\n\r\n    //Register Object\r\n    function register(address _address) public {\r\n        lookupTable[_address].manager = msg.sender;\r\n        lookupTable[_address].isValued = true;\r\n    }\r\n\r\n    //add policy for Object\r\n    function addPolicy(        \r\n        address _resource,     //Object Address\r\n        string[] memory _attrs,//Object Attributes\r\n        string memory _action  //Operation\r\n    ) public {         \r\n        policies[_resource][_action].push(PolicyItem(_attrs, _action));        \r\n    } \r\n\r\n    //add Attribute for Object\r\n    function addAttribute(\r\n        address _address,        //Object Address\r\n        string memory _attrName, //Object Attribute name\r\n        string memory _attrValue,//Object Attribute value\r\n        string[] memory _parent  //Object Attribute parents\r\n    ) public isRegister(_address) {\r\n        lookupTable[_address].attrbutes[_attrName].value = _attrValue;\r\n        lookupTable[_address].attrbutes[_attrName].parentAttr = _parent;\r\n        lookupTable[_address].attrbutes[_attrName].isValued = true;\r\n    }\r\n\r\n    // find attributes\r\n    function getAttribute(address _address, string memory _attrName)\r\n        public\r\n        view\r\n        isRegister(_address)\r\n        returns (string[] memory _attrValue)\r\n    {\r\n        string[] memory result = new string[](\r\n            lookupTable[_address].attrbutes[_attrName].parentAttr.length + 1\r\n        );\r\n\r\n        result[0] = lookupTable[_address].attrbutes[_attrName].value;\r\n\r\n        for (\r\n            uint256 i = 0;\r\n            i < lookupTable[_address].attrbutes[_attrName].parentAttr.length;\r\n            i++\r\n        ) {\r\n            result[i + 1] = lookupTable[_address]\r\n                .attrbutes[_attrName]\r\n                .parentAttr[i];\r\n        }\r\n\r\n        return result;\r\n    }\r\n\r\n    \r\n    //check Access control request\r\n    function accessControl(\r\n        address _from,\r\n        address _resource,\r\n        string memory _action\r\n    ) public view returns (bool, uint256) {\r\n        uint256 firstTime = block.timestamp;\r\n        // check policies\r\n        if (policies[_resource][_action].length == 0) {\r\n            revert(\"NotDefine\");\r\n        }\r\n\r\n        for (uint256 i = 0; i < policies[_resource][_action].length; i++) {\r\n            bool isMatchPolicy = fetchAttribute(\r\n                _from,\r\n                policies[_resource][_action][i].attr\r\n            );\r\n            \r\n            if (isMatchPolicy) return (true, firstTime);\r\n        }\r\n\r\n        return (false, firstTime);\r\n    }\r\n\r\n    function fetchAttribute(address _resource, string[] memory _policyAttr)\r\n        private\r\n        view\r\n        returns (bool)\r\n    {\r\n        string[] memory attrValue;\r\n        uint256 expersionLength;\r\n\r\n        if (_policyAttr.length == 3) {\r\n            expersionLength = 1;\r\n        } else {\r\n            expersionLength = (_policyAttr.length / 3) + 2;\r\n        }\r\n        string[] memory expersion = new string[](expersionLength);\r\n        uint256 expersionCounter = 0;\r\n\r\n        for (uint256 i = 0; i < _policyAttr.length; i += 4) {\r\n            attrValue = getAttribute(_resource, _policyAttr[i]);\r\n            bool result = compareAttribute(\r\n                _policyAttr[i + 1],\r\n                attrValue,\r\n                _policyAttr[i + 2]\r\n            );\r\n\r\n            expersion[expersionCounter++] = result ? \"true\" : \"false\";\r\n\r\n            if (_policyAttr.length - (i + 3) > 0) {\r\n                expersion[expersionCounter++] = _policyAttr[i + 3];\r\n            }\r\n        }\r\n\r\n        return parseExperssion(expersion);\r\n    }\r\n\r\n    function compareAttribute(\r\n        string memory _policyAttrVal,\r\n        string[] memory _attrValue,\r\n        string memory _operator\r\n    ) private pure returns (bool) {\r\n        bool isExistsPolicy = false;\r\n\r\n        for (uint256 i = 0; i < _attrValue.length; i++) {\r\n            if (\r\n                stringCompare(_operator, \"=\") &&\r\n                (stringCompare(_attrValue[i], _policyAttrVal))\r\n            ) {\r\n                isExistsPolicy = true;\r\n                break;\r\n            } else if (\r\n                stringCompare(_operator, \"!=\") &&\r\n                (!stringCompare(_attrValue[i], _policyAttrVal))\r\n            ) {\r\n                isExistsPolicy = true;\r\n                break;\r\n            } else if (\r\n                stringCompare(_operator, \"<\") &&\r\n                (stringToUint(_attrValue[i]) <= stringToUint(_policyAttrVal))\r\n            ) {\r\n                isExistsPolicy = true;\r\n                break;\r\n            } else if (\r\n                stringCompare(_operator, \">\") &&\r\n                (stringToUint(_attrValue[i]) >= stringToUint(_policyAttrVal))\r\n            ) {\r\n                isExistsPolicy = true;\r\n                break;\r\n            }\r\n        }\r\n\r\n        return isExistsPolicy;\r\n    }\r\n\r\n    function parseExperssion(string[] memory _expersion)\r\n        private\r\n        pure\r\n        returns (bool)\r\n    {\r\n        bool flag = stringCompare(_expersion[0], \"true\") ? true : false;\r\n\r\n        if (_expersion.length == 1) return flag;\r\n\r\n        flag = compareExperssion(_expersion[1], flag, _expersion[2]);\r\n\r\n        for (uint256 i = 3; i < _expersion.length; i += 2) {\r\n            if (stringCompare(_expersion[i], \"or\")) {\r\n                flag = flag || stringCompare(_expersion[i + 1], \"true\")\r\n                    ? true\r\n                    : false;\r\n            } else if (stringCompare(_expersion[i], \"and\")) {\r\n                flag = flag && stringCompare(_expersion[i + 1], \"true\")\r\n                    ? true\r\n                    : false;\r\n            }\r\n        }\r\n\r\n        return flag;\r\n    }\r\n\r\n    function compareExperssion(\r\n        string memory opt,\r\n        bool val1,\r\n        string memory val2\r\n    ) private pure returns (bool) {\r\n        if (stringCompare(opt, \"or\")) {\r\n            return val1 || stringCompare(val2, \"true\") ? true : false;\r\n        } else if (stringCompare(opt, \"and\")) {\r\n            return val1 && stringCompare(val2, \"true\") ? true : false;\r\n        }\r\n\r\n        return false;\r\n    }\r\n\r\n    function stringCompare(string memory a, string memory b)\r\n        public\r\n        pure\r\n        returns (bool)\r\n    {\r\n        bytes memory _a = bytes(a);\r\n        bytes memory _b = bytes(b);\r\n        if (_a.length != _b.length) {\r\n            return false;\r\n        } else {\r\n            if (_a.length == 1) {\r\n                return _a[0] == _b[0];\r\n            } else {\r\n                return\r\n                    keccak256(abi.encodePacked(a)) ==\r\n                    keccak256(abi.encodePacked(b));\r\n            }\r\n        }\r\n    }\r\n\r\n     function stringToUint(string memory s)\r\n        public\r\n        pure\r\n        returns (uint256 result)\r\n    {\r\n        bytes memory b = bytes(s);\r\n        uint256 i;\r\n        result = 0;\r\n        for (i = 0; i < b.length; i++) {\r\n            uint8 c = uint8(b[i]);\r\n            if (c >= 48 && c <= 57) {\r\n                result = result * 10 + (c - 48);\r\n            }\r\n        }\r\n    }\r\n}\r\n",
  "sourcePath": "C:\\final\\ObjectGroup\\contracts\\ObjectContract.sol",
  "compiler": {
    "name": "solc",
    "version": "0.8.15+commit.e14f2714.Emscripten.clang"
  },
  "schemaVersion": "3.4.8",
  "updatedAt": "2023-01-09T15:33:35.440Z",
  "devdoc": {
    "kind": "dev",
    "methods": {},
    "version": 1
  },
  "userdoc": {
    "kind": "user",
    "methods": {},
    "version": 1
  }
}