{
  "contractName": "OAMC",
  "abi": [
    {
      "inputs": [
        {
          "internalType": "address",
          "name": "_address",
          "type": "address"
        }
      ],
      "name": "addObject",
      "outputs": [],
      "stateMutability": "nonpayable",
      "type": "function"
    },
    {
      "inputs": [
        {
          "internalType": "address",
          "name": "_address",
          "type": "address"
        },
        {
          "internalType": "string",
          "name": "_attrName",
          "type": "string"
        },
        {
          "internalType": "string",
          "name": "_attrValue",
          "type": "string"
        },
        {
          "internalType": "string[]",
          "name": "_parent",
          "type": "string[]"
        }
      ],
      "name": "addObjectAttr",
      "outputs": [],
      "stateMutability": "nonpayable",
      "type": "function"
    },
    {
      "inputs": [
        {
          "internalType": "address",
          "name": "_address",
          "type": "address"
        },
        {
          "internalType": "string",
          "name": "_attrName",
          "type": "string"
        },
        {
          "internalType": "string",
          "name": "_attrValue",
          "type": "string"
        },
        {
          "internalType": "string[]",
          "name": "_parent",
          "type": "string[]"
        }
      ],
      "name": "updateObjectAttr",
      "outputs": [],
      "stateMutability": "nonpayable",
      "type": "function"
    },
    {
      "inputs": [
        {
          "internalType": "address",
          "name": "_address",
          "type": "address"
        },
        {
          "internalType": "string",
          "name": "_attrName",
          "type": "string"
        }
      ],
      "name": "deleteObjectAttr",
      "outputs": [],
      "stateMutability": "nonpayable",
      "type": "function"
    },
    {
      "inputs": [
        {
          "internalType": "address",
          "name": "_address",
          "type": "address"
        },
        {
          "internalType": "string",
          "name": "_attrName",
          "type": "string"
        }
      ],
      "name": "expand",
      "outputs": [
        {
          "internalType": "string[]",
          "name": "_attrValue",
          "type": "string[]"
        }
      ],
      "stateMutability": "view",
      "type": "function",
      "constant": true
    }
  ],
  "bytecode": "0x608060405234801561001057600080fd5b5061162e806100206000396000f3fe608060405234801561001057600080fd5b50600436106100575760003560e01c8063357ca23a1461005c57806370c17f5b146100785780639c4a918814610094578063b5ab3fbb146100b0578063c64cb762146100e0575b600080fd5b61007660048036038101906100719190610e94565b6100fc565b005b610092600480360381019061008d9190610e94565b6102ee565b005b6100ae60048036038101906100a99190610f4f565b6104e0565b005b6100ca60048036038101906100c59190610f4f565b610608565b6040516100d791906110f5565b60405180910390f35b6100fa60048036038101906100f59190611117565b610a1e565b005b836000808273ffffffffffffffffffffffffffffffffffffffff1673ffffffffffffffffffffffffffffffffffffffff16815260200190815260200160002060000160009054906101000a900460ff1661018b576040517f08c379a0000000000000000000000000000000000000000000000000000000008152600401610182906111a1565b60405180910390fd5b826000808773ffffffffffffffffffffffffffffffffffffffff1673ffffffffffffffffffffffffffffffffffffffff168152602001908152602001600020600101856040516101db91906111fd565b908152602001604051809103902060010190816101f8919061142a565b50816000808773ffffffffffffffffffffffffffffffffffffffff1673ffffffffffffffffffffffffffffffffffffffff1681526020019081526020016000206001018560405161024991906111fd565b9081526020016040518091039020600201908051906020019061026d929190610afb565b5060016000808773ffffffffffffffffffffffffffffffffffffffff1673ffffffffffffffffffffffffffffffffffffffff168152602001908152602001600020600101856040516102bf91906111fd565b908152602001604051809103902060000160006101000a81548160ff0219169083151502179055505050505050565b836000808273ffffffffffffffffffffffffffffffffffffffff1673ffffffffffffffffffffffffffffffffffffffff16815260200190815260200160002060000160009054906101000a900460ff1661037d576040517f08c379a0000000000000000000000000000000000000000000000000000000008152600401610374906111a1565b60405180910390fd5b826000808773ffffffffffffffffffffffffffffffffffffffff1673ffffffffffffffffffffffffffffffffffffffff168152602001908152602001600020600101856040516103cd91906111fd565b908152602001604051809103902060010190816103ea919061142a565b50816000808773ffffffffffffffffffffffffffffffffffffffff1673ffffffffffffffffffffffffffffffffffffffff1681526020019081526020016000206001018560405161043b91906111fd565b9081526020016040518091039020600201908051906020019061045f929190610afb565b5060016000808773ffffffffffffffffffffffffffffffffffffffff1673ffffffffffffffffffffffffffffffffffffffff168152602001908152602001600020600101856040516104b191906111fd565b908152602001604051809103902060000160006101000a81548160ff0219169083151502179055505050505050565b816000808273ffffffffffffffffffffffffffffffffffffffff1673ffffffffffffffffffffffffffffffffffffffff16815260200190815260200160002060000160009054906101000a900460ff1661056f576040517f08c379a0000000000000000000000000000000000000000000000000000000008152600401610566906111a1565b60405180910390fd5b6000808473ffffffffffffffffffffffffffffffffffffffff1673ffffffffffffffffffffffffffffffffffffffff168152602001908152602001600020600101826040516105be91906111fd565b9081526020016040518091039020600080820160006101000a81549060ff02191690556001820160006105f19190610b54565b6002820160006106019190610b94565b5050505050565b6060826000808273ffffffffffffffffffffffffffffffffffffffff1673ffffffffffffffffffffffffffffffffffffffff16815260200190815260200160002060000160009054906101000a900460ff16610699576040517f08c379a0000000000000000000000000000000000000000000000000000000008152600401610690906111a1565b60405180910390fd5b600060016000808773ffffffffffffffffffffffffffffffffffffffff1673ffffffffffffffffffffffffffffffffffffffff168152602001908152602001600020600101856040516106ec91906111fd565b90815260200160405180910390206002018054905061070b919061152b565b67ffffffffffffffff81111561072457610723610c83565b5b60405190808252806020026020018201604052801561075757816020015b60608152602001906001900390816107425790505b5090506000808673ffffffffffffffffffffffffffffffffffffffff1673ffffffffffffffffffffffffffffffffffffffff168152602001908152602001600020600101846040516107a991906111fd565b908152602001604051809103902060010180546107c590611243565b80601f01602080910402602001604051908101604052809291908181526020018280546107f190611243565b801561083e5780601f106108135761010080835404028352916020019161083e565b820191906000526020600020905b81548152906001019060200180831161082157829003601f168201915b50505050508160008151811061085757610856611581565b5b602002602001018190525060005b6000808773ffffffffffffffffffffffffffffffffffffffff1673ffffffffffffffffffffffffffffffffffffffff168152602001908152602001600020600101856040516108b491906111fd565b908152602001604051809103902060020180549050811015610a12576000808773ffffffffffffffffffffffffffffffffffffffff1673ffffffffffffffffffffffffffffffffffffffff1681526020019081526020016000206001018560405161091f91906111fd565b9081526020016040518091039020600201818154811061094257610941611581565b5b90600052602060002001805461095790611243565b80601f016020809104026020016040519081016040528092919081815260200182805461098390611243565b80156109d05780601f106109a5576101008083540402835291602001916109d0565b820191906000526020600020905b8154815290600101906020018083116109b357829003601f168201915b5050505050826001836109e3919061152b565b815181106109f4576109f3611581565b5b60200260200101819052508080610a0a906115b0565b915050610865565b50809250505092915050565b336000808373ffffffffffffffffffffffffffffffffffffffff1673ffffffffffffffffffffffffffffffffffffffff16815260200190815260200160002060000160016101000a81548173ffffffffffffffffffffffffffffffffffffffff021916908373ffffffffffffffffffffffffffffffffffffffff16021790555060016000808373ffffffffffffffffffffffffffffffffffffffff1673ffffffffffffffffffffffffffffffffffffffff16815260200190815260200160002060000160006101000a81548160ff02191690831515021790555050565b828054828255906000526020600020908101928215610b43579160200282015b82811115610b42578251829081610b32919061142a565b5091602001919060010190610b1b565b5b509050610b509190610bb5565b5090565b508054610b6090611243565b6000825580601f10610b725750610b91565b601f016020900490600052602060002090810190610b909190610bd9565b5b50565b5080546000825590600052602060002090810190610bb29190610bb5565b50565b5b80821115610bd55760008181610bcc9190610b54565b50600101610bb6565b5090565b5b80821115610bf2576000816000905550600101610bda565b5090565b6000604051905090565b600080fd5b600080fd5b600073ffffffffffffffffffffffffffffffffffffffff82169050919050565b6000610c3582610c0a565b9050919050565b610c4581610c2a565b8114610c5057600080fd5b50565b600081359050610c6281610c3c565b92915050565b600080fd5b600080fd5b6000601f19601f8301169050919050565b7f4e487b7100000000000000000000000000000000000000000000000000000000600052604160045260246000fd5b610cbb82610c72565b810181811067ffffffffffffffff82111715610cda57610cd9610c83565b5b80604052505050565b6000610ced610bf6565b9050610cf98282610cb2565b919050565b600067ffffffffffffffff821115610d1957610d18610c83565b5b610d2282610c72565b9050602081019050919050565b82818337600083830152505050565b6000610d51610d4c84610cfe565b610ce3565b905082815260208101848484011115610d6d57610d6c610c6d565b5b610d78848285610d2f565b509392505050565b600082601f830112610d9557610d94610c68565b5b8135610da5848260208601610d3e565b91505092915050565b600067ffffffffffffffff821115610dc957610dc8610c83565b5b602082029050602081019050919050565b600080fd5b6000610df2610ded84610dae565b610ce3565b90508083825260208201905060208402830185811115610e1557610e14610dda565b5b835b81811015610e5c57803567ffffffffffffffff811115610e3a57610e39610c68565b5b808601610e478982610d80565b85526020850194505050602081019050610e17565b5050509392505050565b600082601f830112610e7b57610e7a610c68565b5b8135610e8b848260208601610ddf565b91505092915050565b60008060008060808587031215610eae57610ead610c00565b5b6000610ebc87828801610c53565b945050602085013567ffffffffffffffff811115610edd57610edc610c05565b5b610ee987828801610d80565b935050604085013567ffffffffffffffff811115610f0a57610f09610c05565b5b610f1687828801610d80565b925050606085013567ffffffffffffffff811115610f3757610f36610c05565b5b610f4387828801610e66565b91505092959194509250565b60008060408385031215610f6657610f65610c00565b5b6000610f7485828601610c53565b925050602083013567ffffffffffffffff811115610f9557610f94610c05565b5b610fa185828601610d80565b9150509250929050565b600081519050919050565b600082825260208201905092915050565b6000819050602082019050919050565b600081519050919050565b600082825260208201905092915050565b60005b83811015611011578082015181840152602081019050610ff6565b83811115611020576000848401525b50505050565b600061103182610fd7565b61103b8185610fe2565b935061104b818560208601610ff3565b61105481610c72565b840191505092915050565b600061106b8383611026565b905092915050565b6000602082019050919050565b600061108b82610fab565b6110958185610fb6565b9350836020820285016110a785610fc7565b8060005b858110156110e357848403895281516110c4858261105f565b94506110cf83611073565b925060208a019950506001810190506110ab565b50829750879550505050505092915050565b6000602082019050818103600083015261110f8184611080565b905092915050565b60006020828403121561112d5761112c610c00565b5b600061113b84828501610c53565b91505092915050565b600082825260208201905092915050565b7f41646472657373206e6f74207265676973746572656421000000000000000000600082015250565b600061118b601783611144565b915061119682611155565b602082019050919050565b600060208201905081810360008301526111ba8161117e565b9050919050565b600081905092915050565b60006111d782610fd7565b6111e181856111c1565b93506111f1818560208601610ff3565b80840191505092915050565b600061120982846111cc565b915081905092915050565b7f4e487b7100000000000000000000000000000000000000000000000000000000600052602260045260246000fd5b6000600282049050600182168061125b57607f821691505b60208210810361126e5761126d611214565b5b50919050565b60008190508160005260206000209050919050565b60006020601f8301049050919050565b600082821b905092915050565b6000600883026112d67fffffffffffffffffffffffffffffffffffffffffffffffffffffffffffffffff82611299565b6112e08683611299565b95508019841693508086168417925050509392505050565b6000819050919050565b6000819050919050565b600061132761132261131d846112f8565b611302565b6112f8565b9050919050565b6000819050919050565b6113418361130c565b61135561134d8261132e565b8484546112a6565b825550505050565b600090565b61136a61135d565b611375818484611338565b505050565b5b818110156113995761138e600082611362565b60018101905061137b565b5050565b601f8211156113de576113af81611274565b6113b884611289565b810160208510156113c7578190505b6113db6113d385611289565b83018261137a565b50505b505050565b600082821c905092915050565b6000611401600019846008026113e3565b1980831691505092915050565b600061141a83836113f0565b9150826002028217905092915050565b61143382610fd7565b67ffffffffffffffff81111561144c5761144b610c83565b5b6114568254611243565b61146182828561139d565b600060209050601f8311600181146114945760008415611482578287015190505b61148c858261140e565b8655506114f4565b601f1984166114a286611274565b60005b828110156114ca578489015182556001820191506020850194506020810190506114a5565b868310156114e757848901516114e3601f8916826113f0565b8355505b6001600288020188555050505b505050505050565b7f4e487b7100000000000000000000000000000000000000000000000000000000600052601160045260246000fd5b6000611536826112f8565b9150611541836112f8565b9250827fffffffffffffffffffffffffffffffffffffffffffffffffffffffffffffffff03821115611576576115756114fc565b5b828201905092915050565b7f4e487b7100000000000000000000000000000000000000000000000000000000600052603260045260246000fd5b60006115bb826112f8565b91507fffffffffffffffffffffffffffffffffffffffffffffffffffffffffffffffff82036115ed576115ec6114fc565b5b60018201905091905056fea264697066735822122057cc86297680c7b186cef309ed78fe7a7f5331a4fee617e806c0e50e2ff9b17664736f6c634300080f0033",
  "immutableReferences": {},
  "source": "// SPDX-License-Identifier:MIT\r\npragma solidity >=0.4.22 <0.9.0;\r\n \r\n\r\ncontract OAMC { \r\n    \r\n\r\n   //variables\r\n    mapping(address => Resource) internal lookupTable;\r\n     \r\n\r\n    struct Resource {\r\n        bool isValued;\r\n        address manager;\r\n        mapping(string => AttrValue) attrbutes;\r\n    }\r\n\r\n    struct AttrValue {\r\n        bool isValued;        // check for duplicate \r\n        string value;         // attribute value\r\n        string[] parentAttr;  // parent attributes\r\n    }\r\n\r\n    //modifier\r\n    modifier isRegister(address _address) {\r\n        require(lookupTable[_address].isValued, \"Address not registered!\");\r\n        _;\r\n    }\r\n\r\n    modifier isAttributeExist(address _address, string memory _attrName) {\r\n        require(\r\n            !lookupTable[_address].attrbutes[_attrName].isValued,\r\n            \"add Attribute error: Attribute already exist!\"\r\n        );\r\n        _;\r\n    }\r\n \r\n\r\n    //Register Object\r\n    function addObject(address _address) public {\r\n        lookupTable[_address].manager = msg.sender;\r\n        lookupTable[_address].isValued = true;\r\n    }\r\n\r\n    \r\n    \r\n    //add Attribute for Object\r\n    function addObjectAttr(\r\n        address _address,        //Object Address\r\n        string memory _attrName, //Object Attribute name\r\n        string memory _attrValue,//Object Attribute value\r\n        string[] memory _parent  //Object Attribute parents\r\n    ) public isRegister(_address) {\r\n        lookupTable[_address].attrbutes[_attrName].value = _attrValue;\r\n        lookupTable[_address].attrbutes[_attrName].parentAttr = _parent;\r\n        lookupTable[_address].attrbutes[_attrName].isValued = true;\r\n    }\r\n  \r\n    //update Attribute for Object\r\n    function updateObjectAttr(\r\n        address _address,        //Object Address\r\n        string memory _attrName, //Object Attribute name\r\n        string memory _attrValue,//Object Attribute value\r\n        string[] memory _parent  //Object Attribute parents\r\n    ) public isRegister(_address) {\r\n        lookupTable[_address].attrbutes[_attrName].value = _attrValue;\r\n        lookupTable[_address].attrbutes[_attrName].parentAttr = _parent;\r\n        lookupTable[_address].attrbutes[_attrName].isValued = true;\r\n    }\r\n\r\n    //delete Attribute for Object\r\n    function deleteObjectAttr(\r\n        address _address,        //Object Address\r\n        string memory _attrName  //Object Attribute name        \r\n    ) public isRegister(_address) {\r\n        delete lookupTable[_address].attrbutes[_attrName] ;        \r\n    }\r\n\r\n    // expand of all attributes\r\n    function expand(address _address, string memory _attrName)\r\n        public\r\n        view\r\n        isRegister(_address)\r\n        returns (string[] memory _attrValue)\r\n    {\r\n        string[] memory result = new string[](\r\n            lookupTable[_address].attrbutes[_attrName].parentAttr.length + 1\r\n        );\r\n\r\n        result[0] = lookupTable[_address].attrbutes[_attrName].value;\r\n\r\n        for (\r\n            uint256 i = 0;\r\n            i < lookupTable[_address].attrbutes[_attrName].parentAttr.length;\r\n            i++\r\n        ) {\r\n            result[i + 1] = lookupTable[_address]\r\n                .attrbutes[_attrName]\r\n                .parentAttr[i];\r\n        }\r\n\r\n        return result;\r\n    }\r\n      \r\n\r\n}\r\n\r\n\r\n",
  "sourcePath": "C:\\final\\ObjectShard\\contracts\\OAMC.sol",
  "compiler": {
    "name": "solc",
    "version": "0.8.15+commit.e14f2714.Emscripten.clang"
  },
  "schemaVersion": "3.4.8",
  "updatedAt": "2023-01-11T17:07:33.478Z",
  "networkType": "ethereum",
  "devdoc": {
    "kind": "dev",
    "methods": {},
    "version": 1
  },
  "userdoc": {
    "kind": "user",
    "methods": {},
    "version": 1
  }
}